{
  "_format": "hh-sol-artifact-1",
  "contractName": "EthInsurance3000",
  "sourceName": "contracts/EthInsurance.sol",
  "abi": [
    {
      "inputs": [],
      "stateMutability": "payable",
      "type": "constructor"
    },
    {
      "anonymous": false,
      "inputs": [
        {
          "indexed": true,
          "internalType": "address",
          "name": "insured",
          "type": "address"
        },
        {
          "indexed": false,
          "internalType": "uint256",
          "name": "payoutAmount",
          "type": "uint256"
        }
      ],
      "name": "ClaimProcessed",
      "type": "event"
    },
    {
      "anonymous": false,
      "inputs": [
        {
          "indexed": true,
          "internalType": "address",
          "name": "insured",
          "type": "address"
        },
        {
          "indexed": false,
          "internalType": "uint256",
          "name": "premium",
          "type": "uint256"
        },
        {
          "indexed": false,
          "internalType": "uint256",
          "name": "coverageAmount",
          "type": "uint256"
        },
        {
          "indexed": false,
          "internalType": "uint256",
          "name": "startDate",
          "type": "uint256"
        },
        {
          "indexed": false,
          "internalType": "uint256",
          "name": "endDate",
          "type": "uint256"
        }
      ],
      "name": "PolicyPurchased",
      "type": "event"
    },
    {
      "inputs": [
        {
          "internalType": "uint256",
          "name": "durationDays",
          "type": "uint256"
        },
        {
          "internalType": "uint256",
          "name": "coverageAmount",
          "type": "uint256"
        }
      ],
      "name": "calculatePremium",
      "outputs": [
        {
          "internalType": "uint256",
          "name": "",
          "type": "uint256"
        }
      ],
      "stateMutability": "pure",
      "type": "function"
    },
    {
      "inputs": [],
      "name": "capacity",
      "outputs": [
        {
          "internalType": "uint256",
          "name": "",
          "type": "uint256"
        }
      ],
      "stateMutability": "view",
      "type": "function"
    },
    {
      "inputs": [],
      "name": "claim",
      "outputs": [],
      "stateMutability": "nonpayable",
      "type": "function"
    },
    {
      "inputs": [],
      "name": "ethPrice",
      "outputs": [
        {
          "internalType": "uint256",
          "name": "",
          "type": "uint256"
        }
      ],
      "stateMutability": "view",
      "type": "function"
    },
    {
      "inputs": [],
      "name": "fundContract",
      "outputs": [],
      "stateMutability": "payable",
      "type": "function"
    },
    {
      "inputs": [],
      "name": "getContractBalance",
      "outputs": [
        {
          "internalType": "uint256",
          "name": "",
          "type": "uint256"
        }
      ],
      "stateMutability": "view",
      "type": "function"
    },
    {
      "inputs": [],
      "name": "getEthDecimalPlace",
      "outputs": [
        {
          "internalType": "uint256",
          "name": "",
          "type": "uint256"
        }
      ],
      "stateMutability": "view",
      "type": "function"
    },
    {
      "inputs": [],
      "name": "getEthPrice",
      "outputs": [
        {
          "internalType": "int256",
          "name": "",
          "type": "int256"
        }
      ],
      "stateMutability": "view",
      "type": "function"
    },
    {
      "inputs": [],
      "name": "owner",
      "outputs": [
        {
          "internalType": "address",
          "name": "",
          "type": "address"
        }
      ],
      "stateMutability": "view",
      "type": "function"
    },
    {
      "inputs": [
        {
          "internalType": "address",
          "name": "",
          "type": "address"
        }
      ],
      "name": "policies",
      "outputs": [
        {
          "internalType": "address",
          "name": "insured",
          "type": "address"
        },
        {
          "internalType": "uint256",
          "name": "premium",
          "type": "uint256"
        },
        {
          "internalType": "uint256",
          "name": "coverageAmount",
          "type": "uint256"
        },
        {
          "internalType": "uint256",
          "name": "startDate",
          "type": "uint256"
        },
        {
          "internalType": "uint256",
          "name": "endDate",
          "type": "uint256"
        },
        {
          "internalType": "enum EthInsurance3000.PolicyStatus",
          "name": "status",
          "type": "uint8"
        }
      ],
      "stateMutability": "view",
      "type": "function"
    },
    {
      "inputs": [
        {
          "internalType": "uint256",
          "name": "durationDays",
          "type": "uint256"
        },
        {
          "internalType": "uint256",
          "name": "coverageAmount",
          "type": "uint256"
        }
      ],
      "name": "purchaseInsurance",
      "outputs": [],
      "stateMutability": "payable",
      "type": "function"
    },
    {
      "inputs": [],
      "name": "withdraw",
      "outputs": [],
      "stateMutability": "payable",
      "type": "function"
    }
  ],
  "bytecode": "0x608060405273694aa1769357215de4fac081bf1f309adc325306600360006101000a81548173ffffffffffffffffffffffffffffffffffffffff021916908373ffffffffffffffffffffffffffffffffffffffff160217905550336000806101000a81548173ffffffffffffffffffffffffffffffffffffffff021916908373ffffffffffffffffffffffffffffffffffffffff16021790555034600260008282546100ab91906100f0565b92505081905550610124565b6000819050919050565b7f4e487b7100000000000000000000000000000000000000000000000000000000600052601160045260246000fd5b60006100fb826100b7565b9150610106836100b7565b925082820190508082111561011e5761011d6100c1565b5b92915050565b6115de80620001346000396000f3fe6080604052600436106100a65760003560e01c80636f9fb98a116100645780636f9fb98a146101a157806382e83a1e146101cc5780638da5cb5b146101f7578063bd097e2114610222578063e515cc7f1461022c578063ff186b2e14610248576100a6565b806212100c146100ab57806320e98698146100e85780633ccfd60b1461012a5780634e71d92d146101345780635cfc1a511461014b57806367c9b01714610176575b600080fd5b3480156100b757600080fd5b506100d260048036038101906100cd9190610b60565b610273565b6040516100df9190610baf565b60405180910390f35b3480156100f457600080fd5b5061010f600480360381019061010a9190610c28565b610295565b60405161012196959493929190610cdb565b60405180910390f35b6101326102fe565b005b34801561014057600080fd5b506101496103e3565b005b34801561015757600080fd5b506101606106b6565b60405161016d9190610baf565b60405180910390f35b34801561018257600080fd5b5061018b6106bc565b6040516101989190610d55565b60405180910390f35b3480156101ad57600080fd5b506101b661075d565b6040516101c39190610baf565b60405180910390f35b3480156101d857600080fd5b506101e16107f4565b6040516101ee9190610baf565b60405180910390f35b34801561020357600080fd5b5061020c61088f565b6040516102199190610d70565b60405180910390f35b61022a6108b3565b005b61024660048036038101906102419190610b60565b6108ce565b005b34801561025457600080fd5b5061025d610b1f565b60405161026a9190610baf565b60405180910390f35b6000600283836102839190610de9565b61028d9190610de9565b905092915050565b60046020528060005260406000206000915090508060000160009054906101000a900473ffffffffffffffffffffffffffffffffffffffff16908060010154908060020154908060030154908060040154908060050160009054906101000a900460ff16905086565b60008054906101000a900473ffffffffffffffffffffffffffffffffffffffff1673ffffffffffffffffffffffffffffffffffffffff163373ffffffffffffffffffffffffffffffffffffffff161461038c576040517f08c379a000000000000000000000000000000000000000000000000000000000815260040161038390610e77565b60405180910390fd5b600033905060006002819055508073ffffffffffffffffffffffffffffffffffffffff166108fc479081150290604051600060405180830381858888f193505050501580156103df573d6000803e3d6000fd5b5050565b6000600460003373ffffffffffffffffffffffffffffffffffffffff1673ffffffffffffffffffffffffffffffffffffffff16815260200190815260200160002090503373ffffffffffffffffffffffffffffffffffffffff168160000160009054906101000a900473ffffffffffffffffffffffffffffffffffffffff1673ffffffffffffffffffffffffffffffffffffffff16146104b8576040517f08c379a00000000000000000000000000000000000000000000000000000000081526004016104af90610ee3565b60405180910390fd5b600060028111156104cc576104cb610c64565b5b8160050160009054906101000a900460ff1660028111156104f0576104ef610c64565b5b14610530576040517f08c379a000000000000000000000000000000000000000000000000000000000815260040161052790610f4f565b60405180910390fd5b8060040154421115610577576040517f08c379a000000000000000000000000000000000000000000000000000000000815260040161056e90610fbb565b60405180910390fd5b61057f6106bc565b60018190555061058d6107f4565b6001610599919061110e565b610bb86105a69190611159565b600154106105e9576040517f08c379a00000000000000000000000000000000000000000000000000000000081526004016105e09061120d565b60405180910390fd5b60018160050160006101000a81548160ff0219169083600281111561061157610610610c64565b5b02179055503373ffffffffffffffffffffffffffffffffffffffff166108fc82600201549081150290604051600060405180830381858888f19350505050158015610660573d6000803e3d6000fd5b503373ffffffffffffffffffffffffffffffffffffffff167fe80d36773458ce7a03850714245b45fa8535fda364366bf7552e38ec63fbf99782600201546040516106ab9190610baf565b60405180910390a250565b60025481565b600080600360009054906101000a900473ffffffffffffffffffffffffffffffffffffffff1673ffffffffffffffffffffffffffffffffffffffff1663feaf968c6040518163ffffffff1660e01b815260040160a060405180830381865afa15801561072c573d6000803e3d6000fd5b505050506040513d601f19601f8201168201806040525081019061075091906112b0565b5050509150508091505090565b60008060009054906101000a900473ffffffffffffffffffffffffffffffffffffffff1673ffffffffffffffffffffffffffffffffffffffff163373ffffffffffffffffffffffffffffffffffffffff16146107ee576040517f08c379a00000000000000000000000000000000000000000000000000000000081526004016107e590610e77565b60405180910390fd5b47905090565b6000600360009054906101000a900473ffffffffffffffffffffffffffffffffffffffff1673ffffffffffffffffffffffffffffffffffffffff1663313ce5676040518163ffffffff1660e01b8152600401602060405180830381865afa158015610863573d6000803e3d6000fd5b505050506040513d601f19601f820116820180604052508101906108879190611364565b60ff16905090565b60008054906101000a900473ffffffffffffffffffffffffffffffffffffffff1681565b34600260008282546108c59190611391565b92505081905550565b605a821115610912576040517f08c379a000000000000000000000000000000000000000000000000000000000815260040161090990611437565b60405180910390fd5b6002548110610956576040517f08c379a000000000000000000000000000000000000000000000000000000000815260040161094d906114a3565b60405180910390fd5b60006109628383610273565b90508034146109a6576040517f08c379a000000000000000000000000000000000000000000000000000000000815260040161099d9061150f565b60405180910390fd5b80826002546109b5919061152f565b6109bf9190611391565b6002819055506000429050600062015180856109db9190611159565b826109e69190611391565b90506000600460003373ffffffffffffffffffffffffffffffffffffffff1673ffffffffffffffffffffffffffffffffffffffff1681526020019081526020016000209050338160000160006101000a81548173ffffffffffffffffffffffffffffffffffffffff021916908373ffffffffffffffffffffffffffffffffffffffff16021790555083816001018190555084816002018190555082816003018190555081816004018190555060008160050160006101000a81548160ff02191690836002811115610aba57610ab9610c64565b5b02179055503373ffffffffffffffffffffffffffffffffffffffff167f8e63e251f17c4f8c8dd082b9641ba8a3a04d5506e4a1b1782c6e3f57abc393748583600201548686604051610b0f9493929190611563565b60405180910390a2505050505050565b60015481565b600080fd5b6000819050919050565b610b3d81610b2a565b8114610b4857600080fd5b50565b600081359050610b5a81610b34565b92915050565b60008060408385031215610b7757610b76610b25565b5b6000610b8585828601610b4b565b9250506020610b9685828601610b4b565b9150509250929050565b610ba981610b2a565b82525050565b6000602082019050610bc46000830184610ba0565b92915050565b600073ffffffffffffffffffffffffffffffffffffffff82169050919050565b6000610bf582610bca565b9050919050565b610c0581610bea565b8114610c1057600080fd5b50565b600081359050610c2281610bfc565b92915050565b600060208284031215610c3e57610c3d610b25565b5b6000610c4c84828501610c13565b91505092915050565b610c5e81610bea565b82525050565b7f4e487b7100000000000000000000000000000000000000000000000000000000600052602160045260246000fd5b60038110610ca457610ca3610c64565b5b50565b6000819050610cb582610c93565b919050565b6000610cc582610ca7565b9050919050565b610cd581610cba565b82525050565b600060c082019050610cf06000830189610c55565b610cfd6020830188610ba0565b610d0a6040830187610ba0565b610d176060830186610ba0565b610d246080830185610ba0565b610d3160a0830184610ccc565b979650505050505050565b6000819050919050565b610d4f81610d3c565b82525050565b6000602082019050610d6a6000830184610d46565b92915050565b6000602082019050610d856000830184610c55565b92915050565b7f4e487b7100000000000000000000000000000000000000000000000000000000600052601260045260246000fd5b7f4e487b7100000000000000000000000000000000000000000000000000000000600052601160045260246000fd5b6000610df482610b2a565b9150610dff83610b2a565b925082610e0f57610e0e610d8b565b5b828204905092915050565b600082825260208201905092915050565b7f4e6f742074686520636f6e7472616374206f776e657200000000000000000000600082015250565b6000610e61601683610e1a565b9150610e6c82610e2b565b602082019050919050565b60006020820190508181036000830152610e9081610e54565b9050919050565b7f4e6f20706f6c69637920666f756e6420666f72207468652073656e6465720000600082015250565b6000610ecd601e83610e1a565b9150610ed882610e97565b602082019050919050565b60006020820190508181036000830152610efc81610ec0565b9050919050565b7f496e737572616e636520616c726561647920636c61696d656400000000000000600082015250565b6000610f39601983610e1a565b9150610f4482610f03565b602082019050919050565b60006020820190508181036000830152610f6881610f2c565b9050919050565b7f506f6c6963792065787069726564000000000000000000000000000000000000600082015250565b6000610fa5600e83610e1a565b9150610fb082610f6f565b602082019050919050565b60006020820190508181036000830152610fd481610f98565b9050919050565b60008160011c9050919050565b6000808291508390505b60018511156110325780860481111561100e5761100d610dba565b5b600185161561101d5780820291505b808102905061102b85610fdb565b9450610ff2565b94509492505050565b60008261104b5760019050611107565b816110595760009050611107565b816001811461106f5760028114611079576110a8565b6001915050611107565b60ff84111561108b5761108a610dba565b5b8360020a9150848211156110a2576110a1610dba565b5b50611107565b5060208310610133831016604e8410600b84101617156110dd5782820a9050838111156110d8576110d7610dba565b5b611107565b6110ea8484846001610fe8565b9250905081840481111561110157611100610dba565b5b81810290505b9392505050565b600061111982610b2a565b915061112483610b2a565b92506111517fffffffffffffffffffffffffffffffffffffffffffffffffffffffffffffffff848461103b565b905092915050565b600061116482610b2a565b915061116f83610b2a565b925082820261117d81610b2a565b9150828204841483151761119457611193610dba565b5b5092915050565b7f457468657265756d207072696365206973206e6f742062656c6f77202431303060008201527f3000000000000000000000000000000000000000000000000000000000000000602082015250565b60006111f7602183610e1a565b91506112028261119b565b604082019050919050565b60006020820190508181036000830152611226816111ea565b9050919050565b600069ffffffffffffffffffff82169050919050565b61124c8161122d565b811461125757600080fd5b50565b60008151905061126981611243565b92915050565b61127881610d3c565b811461128357600080fd5b50565b6000815190506112958161126f565b92915050565b6000815190506112aa81610b34565b92915050565b600080600080600060a086880312156112cc576112cb610b25565b5b60006112da8882890161125a565b95505060206112eb88828901611286565b94505060406112fc8882890161129b565b935050606061130d8882890161129b565b925050608061131e8882890161125a565b9150509295509295909350565b600060ff82169050919050565b6113418161132b565b811461134c57600080fd5b50565b60008151905061135e81611338565b92915050565b60006020828403121561137a57611379610b25565b5b60006113888482850161134f565b91505092915050565b600061139c82610b2a565b91506113a783610b2a565b92508282019050808211156113bf576113be610dba565b5b92915050565b7f4475726174696f6e2065786365656473206d6178696d756d206f662033206d6f60008201527f6e74687300000000000000000000000000000000000000000000000000000000602082015250565b6000611421602483610e1a565b915061142c826113c5565b604082019050919050565b6000602082019050818103600083015261145081611414565b9050919050565b7f436f766572616765206578636565647320636170616369747921000000000000600082015250565b600061148d601a83610e1a565b915061149882611457565b602082019050919050565b600060208201905081810360008301526114bc81611480565b9050919050565b7f496e636f7272656374207072656d69756d20616d6f756e742073656e74000000600082015250565b60006114f9601d83610e1a565b9150611504826114c3565b602082019050919050565b60006020820190508181036000830152611528816114ec565b9050919050565b600061153a82610b2a565b915061154583610b2a565b925082820390508181111561155d5761155c610dba565b5b92915050565b60006080820190506115786000830187610ba0565b6115856020830186610ba0565b6115926040830185610ba0565b61159f6060830184610ba0565b9594505050505056fea2646970667358221220ccf8cf4dcae1f87a6fca507b28c0a519b86f80f7706ba1f7400cd3ee00f3711864736f6c63430008130033",
  "linkReferences": {},
  "deployedLinkReferences": {}
}