{
  "_format": "hh-sol-artifact-1",
  "contractName": "EthInsurance2000",
  "sourceName": "contracts/EthInsurance.sol",
  "abi": [
    {
      "inputs": [],
      "stateMutability": "nonpayable",
      "type": "constructor"
    },
    {
      "anonymous": false,
      "inputs": [
        {
          "indexed": true,
          "internalType": "address",
          "name": "insuredAddress",
          "type": "address"
        },
        {
          "indexed": false,
          "internalType": "uint256",
          "name": "payoutAmount",
          "type": "uint256"
        }
      ],
      "name": "ClaimProcessed",
      "type": "event"
    },
    {
      "anonymous": false,
      "inputs": [
        {
          "indexed": true,
          "internalType": "address",
          "name": "from",
          "type": "address"
        },
        {
          "indexed": true,
          "internalType": "address",
          "name": "to",
          "type": "address"
        }
      ],
      "name": "OwnershipTransferRequested",
      "type": "event"
    },
    {
      "anonymous": false,
      "inputs": [
        {
          "indexed": true,
          "internalType": "address",
          "name": "from",
          "type": "address"
        },
        {
          "indexed": true,
          "internalType": "address",
          "name": "to",
          "type": "address"
        }
      ],
      "name": "OwnershipTransferred",
      "type": "event"
    },
    {
      "anonymous": false,
      "inputs": [
        {
          "indexed": true,
          "internalType": "address",
          "name": "insuredAddress",
          "type": "address"
        }
      ],
      "name": "PolicyPurchased",
      "type": "event"
    },
    {
      "inputs": [],
      "name": "acceptOwnership",
      "outputs": [],
      "stateMutability": "nonpayable",
      "type": "function"
    },
    {
      "inputs": [
        {
          "internalType": "uint256",
          "name": "_coverAmount",
          "type": "uint256"
        },
        {
          "internalType": "uint256",
          "name": "_durationDays",
          "type": "uint256"
        }
      ],
      "name": "calculatePremium",
      "outputs": [
        {
          "internalType": "uint256",
          "name": "",
          "type": "uint256"
        }
      ],
      "stateMutability": "pure",
      "type": "function"
    },
    {
      "inputs": [],
      "name": "capacity",
      "outputs": [
        {
          "internalType": "uint256",
          "name": "",
          "type": "uint256"
        }
      ],
      "stateMutability": "view",
      "type": "function"
    },
    {
      "inputs": [],
      "name": "claim",
      "outputs": [],
      "stateMutability": "payable",
      "type": "function"
    },
    {
      "inputs": [],
      "name": "ethPrice",
      "outputs": [
        {
          "internalType": "uint256",
          "name": "",
          "type": "uint256"
        }
      ],
      "stateMutability": "view",
      "type": "function"
    },
    {
      "inputs": [],
      "name": "fundPolicy",
      "outputs": [],
      "stateMutability": "payable",
      "type": "function"
    },
    {
      "inputs": [],
      "name": "getEthDecimalPlace",
      "outputs": [
        {
          "internalType": "uint256",
          "name": "",
          "type": "uint256"
        }
      ],
      "stateMutability": "view",
      "type": "function"
    },
    {
      "inputs": [],
      "name": "getEthPrice",
      "outputs": [
        {
          "internalType": "int256",
          "name": "",
          "type": "int256"
        }
      ],
      "stateMutability": "view",
      "type": "function"
    },
    {
      "inputs": [
        {
          "internalType": "address",
          "name": "userAddress",
          "type": "address"
        }
      ],
      "name": "numPolicies",
      "outputs": [
        {
          "internalType": "uint256",
          "name": "",
          "type": "uint256"
        }
      ],
      "stateMutability": "view",
      "type": "function"
    },
    {
      "inputs": [],
      "name": "owner",
      "outputs": [
        {
          "internalType": "address",
          "name": "",
          "type": "address"
        }
      ],
      "stateMutability": "view",
      "type": "function"
    },
    {
      "inputs": [
        {
          "internalType": "address",
          "name": "",
          "type": "address"
        },
        {
          "internalType": "uint256",
          "name": "",
          "type": "uint256"
        }
      ],
      "name": "policies",
      "outputs": [
        {
          "internalType": "uint256",
          "name": "premium",
          "type": "uint256"
        },
        {
          "internalType": "uint256",
          "name": "coverAmount",
          "type": "uint256"
        },
        {
          "internalType": "uint256",
          "name": "startDate",
          "type": "uint256"
        },
        {
          "internalType": "uint256",
          "name": "endDate",
          "type": "uint256"
        },
        {
          "internalType": "bool",
          "name": "isClaimed",
          "type": "bool"
        }
      ],
      "stateMutability": "view",
      "type": "function"
    },
    {
      "inputs": [
        {
          "internalType": "uint256",
          "name": "_coverAmount",
          "type": "uint256"
        },
        {
          "internalType": "uint256",
          "name": "_durationDays",
          "type": "uint256"
        }
      ],
      "name": "purchaseInsurance",
      "outputs": [],
      "stateMutability": "payable",
      "type": "function"
    },
    {
      "inputs": [
        {
          "internalType": "address",
          "name": "to",
          "type": "address"
        }
      ],
      "name": "transferOwnership",
      "outputs": [],
      "stateMutability": "nonpayable",
      "type": "function"
    },
    {
      "inputs": [],
      "name": "withdraw",
      "outputs": [],
      "stateMutability": "payable",
      "type": "function"
    }
  ],
  "bytecode": "0x60806040523480156200001157600080fd5b50338060008073ffffffffffffffffffffffffffffffffffffffff168273ffffffffffffffffffffffffffffffffffffffff160362000087576040517f08c379a00000000000000000000000000000000000000000000000000000000081526004016200007e906200030c565b60405180910390fd5b816000806101000a81548173ffffffffffffffffffffffffffffffffffffffff021916908373ffffffffffffffffffffffffffffffffffffffff160217905550600073ffffffffffffffffffffffffffffffffffffffff168173ffffffffffffffffffffffffffffffffffffffff16146200010e576200010d816200017c60201b60201c565b5b50505073694aa1769357215de4fac081bf1f309adc325306600460006101000a81548173ffffffffffffffffffffffffffffffffffffffff021916908373ffffffffffffffffffffffffffffffffffffffff16021790555068056bc75e2d63100000600381905550620003a0565b3373ffffffffffffffffffffffffffffffffffffffff168173ffffffffffffffffffffffffffffffffffffffff1603620001ed576040517f08c379a0000000000000000000000000000000000000000000000000000000008152600401620001e4906200037e565b60405180910390fd5b80600160006101000a81548173ffffffffffffffffffffffffffffffffffffffff021916908373ffffffffffffffffffffffffffffffffffffffff1602179055508073ffffffffffffffffffffffffffffffffffffffff1660008054906101000a900473ffffffffffffffffffffffffffffffffffffffff1673ffffffffffffffffffffffffffffffffffffffff167fed8889f560326eb138920d842192f0eb3dd22b4f139c87a2c57538e05bae127860405160405180910390a350565b600082825260208201905092915050565b7f43616e6e6f7420736574206f776e657220746f207a65726f0000000000000000600082015250565b6000620002f4601883620002ab565b91506200030182620002bc565b602082019050919050565b600060208201905081810360008301526200032781620002e5565b9050919050565b7f43616e6e6f74207472616e7366657220746f2073656c66000000000000000000600082015250565b600062000366601783620002ab565b915062000373826200032e565b602082019050919050565b60006020820190508181036000830152620003998162000357565b9050919050565b611a5a80620003b06000396000f3fe6080604052600436106100dc5760003560e01c806382e83a1e1161007f578063a28b843011610059578063a28b843014610240578063e515cc7f1461027d578063f2fde38b14610299578063ff186b2e146102c2576100dc565b806382e83a1e146101a95780638da5cb5b146101d457806390b4f12b146101ff576100dc565b8063572db9e3116100bb578063572db9e3146101325780635cfc1a511461013c57806367c9b0171461016757806379ba509714610192576100dc565b806212100c146100e15780633ccfd60b1461011e5780634e71d92d14610128575b600080fd5b3480156100ed57600080fd5b5061010860048036038101906101039190610eec565b6102ed565b6040516101159190610f3b565b60405180910390f35b6101266102f8565b005b610130610349565b005b61013a6105e1565b005b34801561014857600080fd5b506101516105fc565b60405161015e9190610f3b565b60405180910390f35b34801561017357600080fd5b5061017c610602565b6040516101899190610f6f565b60405180910390f35b34801561019e57600080fd5b506101a76106a3565b005b3480156101b557600080fd5b506101be610838565b6040516101cb9190610f3b565b60405180910390f35b3480156101e057600080fd5b506101e96108d3565b6040516101f69190610fcb565b60405180910390f35b34801561020b57600080fd5b5061022660048036038101906102219190611012565b6108fc565b60405161023795949392919061106d565b60405180910390f35b34801561024c57600080fd5b50610267600480360381019061026291906110c0565b61095c565b6040516102749190610f3b565b60405180910390f35b61029760048036038101906102929190610eec565b6109a8565b005b3480156102a557600080fd5b506102c060048036038101906102bb91906110c0565b610caa565b005b3480156102ce57600080fd5b506102d7610cbe565b6040516102e49190610f3b565b60405180910390f35b600082905092915050565b610300610cc4565b3373ffffffffffffffffffffffffffffffffffffffff166108fc479081150290604051600060405180830381858888f19350505050158015610346573d6000803e3d6000fd5b50565b6000600560003373ffffffffffffffffffffffffffffffffffffffff1673ffffffffffffffffffffffffffffffffffffffff168152602001908152602001600020905060008180549050116103d3576040517f08c379a00000000000000000000000000000000000000000000000000000000081526004016103ca90611170565b60405180910390fd5b600081600183805490506103e791906111bf565b815481106103f8576103f76111f3565b5b9060005260206000209060050201905042816002015411158015610420575080600301544211155b61045f576040517f08c379a00000000000000000000000000000000000000000000000000000000081526004016104569061126e565b60405180910390fd5b8060040160009054906101000a900460ff16156104b1576040517f08c379a00000000000000000000000000000000000000000000000000000000081526004016104a8906112da565b60405180910390fd5b6104b9610602565b6002819055506104c7610838565b600a6104d3919061142d565b6107d06104e09190611478565b60025410610523576040517f08c379a000000000000000000000000000000000000000000000000000000000815260040161051a9061152c565b60405180910390fd5b60018160040160006101000a81548160ff0219169083151502179055503373ffffffffffffffffffffffffffffffffffffffff166108fc82600101549081150290604051600060405180830381858888f1935050505015801561058a573d6000803e3d6000fd5b503373ffffffffffffffffffffffffffffffffffffffff167fe80d36773458ce7a03850714245b45fa8535fda364366bf7552e38ec63fbf99782600101546040516105d59190610f3b565b60405180910390a25050565b34600360008282546105f3919061154c565b92505081905550565b60035481565b600080600460009054906101000a900473ffffffffffffffffffffffffffffffffffffffff1673ffffffffffffffffffffffffffffffffffffffff1663feaf968c6040518163ffffffff1660e01b815260040160a060405180830381865afa158015610672573d6000803e3d6000fd5b505050506040513d601f19601f820116820180604052508101906106969190611603565b5050509150508091505090565b600160009054906101000a900473ffffffffffffffffffffffffffffffffffffffff1673ffffffffffffffffffffffffffffffffffffffff163373ffffffffffffffffffffffffffffffffffffffff1614610733576040517f08c379a000000000000000000000000000000000000000000000000000000000815260040161072a906116ca565b60405180910390fd5b60008060009054906101000a900473ffffffffffffffffffffffffffffffffffffffff169050336000806101000a81548173ffffffffffffffffffffffffffffffffffffffff021916908373ffffffffffffffffffffffffffffffffffffffff1602179055506000600160006101000a81548173ffffffffffffffffffffffffffffffffffffffff021916908373ffffffffffffffffffffffffffffffffffffffff1602179055503373ffffffffffffffffffffffffffffffffffffffff168173ffffffffffffffffffffffffffffffffffffffff167f8be0079c531659141344cd1fd0a4f28419497f9722a3daafe3b4186f6b6457e060405160405180910390a350565b6000600460009054906101000a900473ffffffffffffffffffffffffffffffffffffffff1673ffffffffffffffffffffffffffffffffffffffff1663313ce5676040518163ffffffff1660e01b8152600401602060405180830381865afa1580156108a7573d6000803e3d6000fd5b505050506040513d601f19601f820116820180604052508101906108cb9190611723565b60ff16905090565b60008060009054906101000a900473ffffffffffffffffffffffffffffffffffffffff16905090565b6005602052816000526040600020818154811061091857600080fd5b9060005260206000209060050201600091509150508060000154908060010154908060020154908060030154908060040160009054906101000a900460ff16905085565b6000600560008373ffffffffffffffffffffffffffffffffffffffff1673ffffffffffffffffffffffffffffffffffffffff168152602001908152602001600020805490509050919050565b605a8111156109ec576040517f08c379a00000000000000000000000000000000000000000000000000000000081526004016109e3906117c2565b60405180910390fd5b600354821115610a31576040517f08c379a0000000000000000000000000000000000000000000000000000000008152600401610a289061182e565b60405180910390fd5b6000610a3d83836102ed565b9050803414610a81576040517f08c379a0000000000000000000000000000000000000000000000000000000008152600401610a789061189a565b60405180910390fd5b6000600560003373ffffffffffffffffffffffffffffffffffffffff1673ffffffffffffffffffffffffffffffffffffffff16815260200190815260200160002090506000818054905014610b665760008160018380549050610ae491906111bf565b81548110610af557610af46111f3565b5b906000526020600020906005020190508060040160009054906101000a900460ff1680610b255750428160030154105b610b64576040517f08c379a0000000000000000000000000000000000000000000000000000000008152600401610b5b9061192c565b60405180910390fd5b505b600042905060006201518085610b7c9190611478565b82610b87919061154c565b90508386600354610b9891906111bf565b610ba2919061154c565b600381905550610bb0610e80565b848160000181815250508681602001818152505082816040018181525050818160600181815250506000816080019015159081151581525050838190806001815401808255809150506001900390600052602060002090600502016000909190919091506000820151816000015560208201518160010155604082015181600201556060820151816003015560808201518160040160006101000a81548160ff02191690831515021790555050503373ffffffffffffffffffffffffffffffffffffffff167f8ad24aacaef6be4fc6b47a84fa6bff9dfa020b118ed789def08941e4da1f314960405160405180910390a250505050505050565b610cb2610cc4565b610cbb81610d54565b50565b60025481565b60008054906101000a900473ffffffffffffffffffffffffffffffffffffffff1673ffffffffffffffffffffffffffffffffffffffff163373ffffffffffffffffffffffffffffffffffffffff1614610d52576040517f08c379a0000000000000000000000000000000000000000000000000000000008152600401610d4990611998565b60405180910390fd5b565b3373ffffffffffffffffffffffffffffffffffffffff168173ffffffffffffffffffffffffffffffffffffffff1603610dc2576040517f08c379a0000000000000000000000000000000000000000000000000000000008152600401610db990611a04565b60405180910390fd5b80600160006101000a81548173ffffffffffffffffffffffffffffffffffffffff021916908373ffffffffffffffffffffffffffffffffffffffff1602179055508073ffffffffffffffffffffffffffffffffffffffff1660008054906101000a900473ffffffffffffffffffffffffffffffffffffffff1673ffffffffffffffffffffffffffffffffffffffff167fed8889f560326eb138920d842192f0eb3dd22b4f139c87a2c57538e05bae127860405160405180910390a350565b6040518060a00160405280600081526020016000815260200160008152602001600081526020016000151581525090565b600080fd5b6000819050919050565b610ec981610eb6565b8114610ed457600080fd5b50565b600081359050610ee681610ec0565b92915050565b60008060408385031215610f0357610f02610eb1565b5b6000610f1185828601610ed7565b9250506020610f2285828601610ed7565b9150509250929050565b610f3581610eb6565b82525050565b6000602082019050610f506000830184610f2c565b92915050565b6000819050919050565b610f6981610f56565b82525050565b6000602082019050610f846000830184610f60565b92915050565b600073ffffffffffffffffffffffffffffffffffffffff82169050919050565b6000610fb582610f8a565b9050919050565b610fc581610faa565b82525050565b6000602082019050610fe06000830184610fbc565b92915050565b610fef81610faa565b8114610ffa57600080fd5b50565b60008135905061100c81610fe6565b92915050565b6000806040838503121561102957611028610eb1565b5b600061103785828601610ffd565b925050602061104885828601610ed7565b9150509250929050565b60008115159050919050565b61106781611052565b82525050565b600060a0820190506110826000830188610f2c565b61108f6020830187610f2c565b61109c6040830186610f2c565b6110a96060830185610f2c565b6110b6608083018461105e565b9695505050505050565b6000602082840312156110d6576110d5610eb1565b5b60006110e484828501610ffd565b91505092915050565b600082825260208201905092915050565b7f596f752068617665206e6f7420707572636861736564207468697320706f6c6960008201527f6379000000000000000000000000000000000000000000000000000000000000602082015250565b600061115a6022836110ed565b9150611165826110fe565b604082019050919050565b600060208201905081810360008301526111898161114d565b9050919050565b7f4e487b7100000000000000000000000000000000000000000000000000000000600052601160045260246000fd5b60006111ca82610eb6565b91506111d583610eb6565b92508282039050818111156111ed576111ec611190565b5b92915050565b7f4e487b7100000000000000000000000000000000000000000000000000000000600052603260045260246000fd5b7f506f6c696379206e6f7420616374697665000000000000000000000000000000600082015250565b60006112586011836110ed565b915061126382611222565b602082019050919050565b600060208201905081810360008301526112878161124b565b9050919050565b7f436c61696d20616c72656164792070726f636573736564000000000000000000600082015250565b60006112c46017836110ed565b91506112cf8261128e565b602082019050919050565b600060208201905081810360008301526112f3816112b7565b9050919050565b60008160011c9050919050565b6000808291508390505b60018511156113515780860481111561132d5761132c611190565b5b600185161561133c5780820291505b808102905061134a856112fa565b9450611311565b94509492505050565b60008261136a5760019050611426565b816113785760009050611426565b816001811461138e5760028114611398576113c7565b6001915050611426565b60ff8411156113aa576113a9611190565b5b8360020a9150848211156113c1576113c0611190565b5b50611426565b5060208310610133831016604e8410600b84101617156113fc5782820a9050838111156113f7576113f6611190565b5b611426565b6114098484846001611307565b925090508184048111156114205761141f611190565b5b81810290505b9392505050565b600061143882610eb6565b915061144383610eb6565b92506114707fffffffffffffffffffffffffffffffffffffffffffffffffffffffffffffffff848461135a565b905092915050565b600061148382610eb6565b915061148e83610eb6565b925082820261149c81610eb6565b915082820484148315176114b3576114b2611190565b5b5092915050565b7f457468657265756d207072696365206973206e6f742062656c6f77202432303060008201527f3000000000000000000000000000000000000000000000000000000000000000602082015250565b60006115166021836110ed565b9150611521826114ba565b604082019050919050565b6000602082019050818103600083015261154581611509565b9050919050565b600061155782610eb6565b915061156283610eb6565b925082820190508082111561157a57611579611190565b5b92915050565b600069ffffffffffffffffffff82169050919050565b61159f81611580565b81146115aa57600080fd5b50565b6000815190506115bc81611596565b92915050565b6115cb81610f56565b81146115d657600080fd5b50565b6000815190506115e8816115c2565b92915050565b6000815190506115fd81610ec0565b92915050565b600080600080600060a0868803121561161f5761161e610eb1565b5b600061162d888289016115ad565b955050602061163e888289016115d9565b945050604061164f888289016115ee565b9350506060611660888289016115ee565b9250506080611671888289016115ad565b9150509295509295909350565b7f4d7573742062652070726f706f736564206f776e657200000000000000000000600082015250565b60006116b46016836110ed565b91506116bf8261167e565b602082019050919050565b600060208201905081810360008301526116e3816116a7565b9050919050565b600060ff82169050919050565b611700816116ea565b811461170b57600080fd5b50565b60008151905061171d816116f7565b92915050565b60006020828403121561173957611738610eb1565b5b60006117478482850161170e565b91505092915050565b7f4475726174696f6e2065786365656473206d6178696d756d206f662033206d6f60008201527f6e74687300000000000000000000000000000000000000000000000000000000602082015250565b60006117ac6024836110ed565b91506117b782611750565b604082019050919050565b600060208201905081810360008301526117db8161179f565b9050919050565b7f436f766572616765206578636565647320636170616369747921000000000000600082015250565b6000611818601a836110ed565b9150611823826117e2565b602082019050919050565b600060208201905081810360008301526118478161180b565b9050919050565b7f496e636f7272656374207072656d69756d20616d6f756e742073656e74000000600082015250565b6000611884601d836110ed565b915061188f8261184e565b602082019050919050565b600060208201905081810360008301526118b381611877565b9050919050565b7f596f75206861766520616c72656164792070757263686173656420746869732060008201527f706f6c6963792e00000000000000000000000000000000000000000000000000602082015250565b60006119166027836110ed565b9150611921826118ba565b604082019050919050565b6000602082019050818103600083015261194581611909565b9050919050565b7f4f6e6c792063616c6c61626c65206279206f776e657200000000000000000000600082015250565b60006119826016836110ed565b915061198d8261194c565b602082019050919050565b600060208201905081810360008301526119b181611975565b9050919050565b7f43616e6e6f74207472616e7366657220746f2073656c66000000000000000000600082015250565b60006119ee6017836110ed565b91506119f9826119b8565b602082019050919050565b60006020820190508181036000830152611a1d816119e1565b905091905056fea264697066735822122067a666d5df8920010a28bd3032d4eed5ed02d1e78a07246b6a5add29a7a61fe864736f6c63430008130033",
  "linkReferences": {},
  "deployedLinkReferences": {}
}