{
  "_format": "hh-sol-artifact-1",
  "contractName": "EthInsurance1000",
  "sourceName": "contracts/EthInsurance.sol",
  "abi": [
    {
      "inputs": [],
      "stateMutability": "nonpayable",
      "type": "constructor"
    },
    {
      "anonymous": false,
      "inputs": [
        {
          "indexed": true,
          "internalType": "address",
          "name": "insuredAddress",
          "type": "address"
        },
        {
          "indexed": false,
          "internalType": "uint256",
          "name": "payoutAmount",
          "type": "uint256"
        }
      ],
      "name": "ClaimProcessed",
      "type": "event"
    },
    {
      "anonymous": false,
      "inputs": [
        {
          "indexed": true,
          "internalType": "address",
          "name": "from",
          "type": "address"
        },
        {
          "indexed": true,
          "internalType": "address",
          "name": "to",
          "type": "address"
        }
      ],
      "name": "OwnershipTransferRequested",
      "type": "event"
    },
    {
      "anonymous": false,
      "inputs": [
        {
          "indexed": true,
          "internalType": "address",
          "name": "from",
          "type": "address"
        },
        {
          "indexed": true,
          "internalType": "address",
          "name": "to",
          "type": "address"
        }
      ],
      "name": "OwnershipTransferred",
      "type": "event"
    },
    {
      "anonymous": false,
      "inputs": [
        {
          "indexed": true,
          "internalType": "address",
          "name": "insuredAddress",
          "type": "address"
        }
      ],
      "name": "PolicyPurchased",
      "type": "event"
    },
    {
      "inputs": [],
      "name": "acceptOwnership",
      "outputs": [],
      "stateMutability": "nonpayable",
      "type": "function"
    },
    {
      "inputs": [
        {
          "internalType": "uint256",
          "name": "_coverAmount",
          "type": "uint256"
        },
        {
          "internalType": "uint256",
          "name": "_durationDays",
          "type": "uint256"
        }
      ],
      "name": "calculatePremium",
      "outputs": [
        {
          "internalType": "uint256",
          "name": "",
          "type": "uint256"
        }
      ],
      "stateMutability": "pure",
      "type": "function"
    },
    {
      "inputs": [],
      "name": "capacity",
      "outputs": [
        {
          "internalType": "uint256",
          "name": "",
          "type": "uint256"
        }
      ],
      "stateMutability": "view",
      "type": "function"
    },
    {
      "inputs": [],
      "name": "claim",
      "outputs": [],
      "stateMutability": "nonpayable",
      "type": "function"
    },
    {
      "inputs": [],
      "name": "ethPrice",
      "outputs": [
        {
          "internalType": "uint256",
          "name": "",
          "type": "uint256"
        }
      ],
      "stateMutability": "view",
      "type": "function"
    },
    {
      "inputs": [],
      "name": "fundPolicy",
      "outputs": [],
      "stateMutability": "payable",
      "type": "function"
    },
    {
      "inputs": [],
      "name": "getContractBalance",
      "outputs": [
        {
          "internalType": "uint256",
          "name": "",
          "type": "uint256"
        }
      ],
      "stateMutability": "view",
      "type": "function"
    },
    {
      "inputs": [],
      "name": "getEthDecimalPlace",
      "outputs": [
        {
          "internalType": "uint256",
          "name": "",
          "type": "uint256"
        }
      ],
      "stateMutability": "view",
      "type": "function"
    },
    {
      "inputs": [],
      "name": "getEthPrice",
      "outputs": [
        {
          "internalType": "int256",
          "name": "",
          "type": "int256"
        }
      ],
      "stateMutability": "view",
      "type": "function"
    },
    {
      "inputs": [],
      "name": "getNumPolicies",
      "outputs": [
        {
          "internalType": "uint256",
          "name": "",
          "type": "uint256"
        }
      ],
      "stateMutability": "view",
      "type": "function"
    },
    {
      "inputs": [],
      "name": "owner",
      "outputs": [
        {
          "internalType": "address",
          "name": "",
          "type": "address"
        }
      ],
      "stateMutability": "view",
      "type": "function"
    },
    {
      "inputs": [
        {
          "internalType": "address",
          "name": "",
          "type": "address"
        },
        {
          "internalType": "uint256",
          "name": "",
          "type": "uint256"
        }
      ],
      "name": "policies",
      "outputs": [
        {
          "internalType": "uint256",
          "name": "premium",
          "type": "uint256"
        },
        {
          "internalType": "uint256",
          "name": "coverAmount",
          "type": "uint256"
        },
        {
          "internalType": "uint256",
          "name": "startDate",
          "type": "uint256"
        },
        {
          "internalType": "uint256",
          "name": "endDate",
          "type": "uint256"
        },
        {
          "internalType": "bool",
          "name": "isClaimed",
          "type": "bool"
        }
      ],
      "stateMutability": "view",
      "type": "function"
    },
    {
      "inputs": [
        {
          "internalType": "uint256",
          "name": "_coverAmount",
          "type": "uint256"
        },
        {
          "internalType": "uint256",
          "name": "_durationDays",
          "type": "uint256"
        }
      ],
      "name": "purchaseInsurance",
      "outputs": [],
      "stateMutability": "payable",
      "type": "function"
    },
    {
      "inputs": [
        {
          "internalType": "address",
          "name": "to",
          "type": "address"
        }
      ],
      "name": "transferOwnership",
      "outputs": [],
      "stateMutability": "nonpayable",
      "type": "function"
    },
    {
      "inputs": [],
      "name": "withdraw",
      "outputs": [],
      "stateMutability": "payable",
      "type": "function"
    }
  ],
  "bytecode": "0x60806040523480156200001157600080fd5b50338060008073ffffffffffffffffffffffffffffffffffffffff168273ffffffffffffffffffffffffffffffffffffffff160362000087576040517f08c379a00000000000000000000000000000000000000000000000000000000081526004016200007e90620002fc565b60405180910390fd5b816000806101000a81548173ffffffffffffffffffffffffffffffffffffffff021916908373ffffffffffffffffffffffffffffffffffffffff160217905550600073ffffffffffffffffffffffffffffffffffffffff168173ffffffffffffffffffffffffffffffffffffffff16146200010e576200010d816200016c60201b60201c565b5b50505073694aa1769357215de4fac081bf1f309adc325306600460006101000a81548173ffffffffffffffffffffffffffffffffffffffff021916908373ffffffffffffffffffffffffffffffffffffffff16021790555062000390565b3373ffffffffffffffffffffffffffffffffffffffff168173ffffffffffffffffffffffffffffffffffffffff1603620001dd576040517f08c379a0000000000000000000000000000000000000000000000000000000008152600401620001d4906200036e565b60405180910390fd5b80600160006101000a81548173ffffffffffffffffffffffffffffffffffffffff021916908373ffffffffffffffffffffffffffffffffffffffff1602179055508073ffffffffffffffffffffffffffffffffffffffff1660008054906101000a900473ffffffffffffffffffffffffffffffffffffffff1673ffffffffffffffffffffffffffffffffffffffff167fed8889f560326eb138920d842192f0eb3dd22b4f139c87a2c57538e05bae127860405160405180910390a350565b600082825260208201905092915050565b7f43616e6e6f7420736574206f776e657220746f207a65726f0000000000000000600082015250565b6000620002e46018836200029b565b9150620002f182620002ac565b602082019050919050565b600060208201905081810360008301526200031781620002d5565b9050919050565b7f43616e6e6f74207472616e7366657220746f2073656c66000000000000000000600082015250565b6000620003566017836200029b565b915062000363826200031e565b602082019050919050565b60006020820190508181036000830152620003898162000347565b9050919050565b611b0580620003a06000396000f3fe6080604052600436106100e75760003560e01c80636f9fb98a1161008a57806390b4f12b1161005957806390b4f12b1461026d578063e515cc7f146102ae578063f2fde38b146102ca578063ff186b2e146102f3576100e7565b80636f9fb98a146101d557806379ba50971461020057806382e83a1e146102175780638da5cb5b14610242576100e7565b80634e71d92d116100c65780634e71d92d1461015e578063572db9e3146101755780635cfc1a511461017f57806367c9b017146101aa576100e7565b806212100c146100ec5780632c441270146101295780633ccfd60b14610154575b600080fd5b3480156100f857600080fd5b50610113600480360381019061010e9190610f37565b61031e565b6040516101209190610f86565b60405180910390f35b34801561013557600080fd5b5061013e610335565b60405161014b9190610f86565b60405180910390f35b61015c61037f565b005b34801561016a57600080fd5b506101736103d0565b005b61017d610668565b005b34801561018b57600080fd5b50610194610683565b6040516101a19190610f86565b60405180910390f35b3480156101b657600080fd5b506101bf610689565b6040516101cc9190610fba565b60405180910390f35b3480156101e157600080fd5b506101ea61072a565b6040516101f79190610f86565b60405180910390f35b34801561020c57600080fd5b5061021561073a565b005b34801561022357600080fd5b5061022c6108cf565b6040516102399190610f86565b60405180910390f35b34801561024e57600080fd5b5061025761096a565b6040516102649190611016565b60405180910390f35b34801561027957600080fd5b50610294600480360381019061028f919061105d565b610993565b6040516102a59594939291906110b8565b60405180910390f35b6102c860048036038101906102c39190610f37565b6109f3565b005b3480156102d657600080fd5b506102f160048036038101906102ec919061110b565b610cf5565b005b3480156102ff57600080fd5b50610308610d09565b6040516103159190610f86565b60405180910390f35b600060028361032d9190611196565b905092915050565b6000600560003373ffffffffffffffffffffffffffffffffffffffff1673ffffffffffffffffffffffffffffffffffffffff16815260200190815260200160002080549050905090565b610387610d0f565b3373ffffffffffffffffffffffffffffffffffffffff166108fc479081150290604051600060405180830381858888f193505050501580156103cd573d6000803e3d6000fd5b50565b6000600560003373ffffffffffffffffffffffffffffffffffffffff1673ffffffffffffffffffffffffffffffffffffffff1681526020019081526020016000209050600081805490501161045a576040517f08c379a00000000000000000000000000000000000000000000000000000000081526004016104519061124a565b60405180910390fd5b6000816001838054905061046e919061126a565b8154811061047f5761047e61129e565b5b90600052602060002090600502019050428160020154111580156104a7575080600301544211155b6104e6576040517f08c379a00000000000000000000000000000000000000000000000000000000081526004016104dd90611319565b60405180910390fd5b8060040160009054906101000a900460ff1615610538576040517f08c379a000000000000000000000000000000000000000000000000000000000815260040161052f90611385565b60405180910390fd5b610540610689565b60028190555061054e6108cf565b600161055a91906114d8565b6103e86105679190611523565b600254106105aa576040517f08c379a00000000000000000000000000000000000000000000000000000000081526004016105a1906115d7565b60405180910390fd5b60018160040160006101000a81548160ff0219169083151502179055503373ffffffffffffffffffffffffffffffffffffffff166108fc82600101549081150290604051600060405180830381858888f19350505050158015610611573d6000803e3d6000fd5b503373ffffffffffffffffffffffffffffffffffffffff167fe80d36773458ce7a03850714245b45fa8535fda364366bf7552e38ec63fbf997826001015460405161065c9190610f86565b60405180910390a25050565b346003600082825461067a91906115f7565b92505081905550565b60035481565b600080600460009054906101000a900473ffffffffffffffffffffffffffffffffffffffff1673ffffffffffffffffffffffffffffffffffffffff1663feaf968c6040518163ffffffff1660e01b815260040160a060405180830381865afa1580156106f9573d6000803e3d6000fd5b505050506040513d601f19601f8201168201806040525081019061071d91906116ae565b5050509150508091505090565b6000610734610d0f565b47905090565b600160009054906101000a900473ffffffffffffffffffffffffffffffffffffffff1673ffffffffffffffffffffffffffffffffffffffff163373ffffffffffffffffffffffffffffffffffffffff16146107ca576040517f08c379a00000000000000000000000000000000000000000000000000000000081526004016107c190611775565b60405180910390fd5b60008060009054906101000a900473ffffffffffffffffffffffffffffffffffffffff169050336000806101000a81548173ffffffffffffffffffffffffffffffffffffffff021916908373ffffffffffffffffffffffffffffffffffffffff1602179055506000600160006101000a81548173ffffffffffffffffffffffffffffffffffffffff021916908373ffffffffffffffffffffffffffffffffffffffff1602179055503373ffffffffffffffffffffffffffffffffffffffff168173ffffffffffffffffffffffffffffffffffffffff167f8be0079c531659141344cd1fd0a4f28419497f9722a3daafe3b4186f6b6457e060405160405180910390a350565b6000600460009054906101000a900473ffffffffffffffffffffffffffffffffffffffff1673ffffffffffffffffffffffffffffffffffffffff1663313ce5676040518163ffffffff1660e01b8152600401602060405180830381865afa15801561093e573d6000803e3d6000fd5b505050506040513d601f19601f8201168201806040525081019061096291906117ce565b60ff16905090565b60008060009054906101000a900473ffffffffffffffffffffffffffffffffffffffff16905090565b600560205281600052604060002081815481106109af57600080fd5b9060005260206000209060050201600091509150508060000154908060010154908060020154908060030154908060040160009054906101000a900460ff16905085565b605a811115610a37576040517f08c379a0000000000000000000000000000000000000000000000000000000008152600401610a2e9061186d565b60405180910390fd5b600354821115610a7c576040517f08c379a0000000000000000000000000000000000000000000000000000000008152600401610a73906118d9565b60405180910390fd5b6000610a88838361031e565b9050803414610acc576040517f08c379a0000000000000000000000000000000000000000000000000000000008152600401610ac390611945565b60405180910390fd5b6000600560003373ffffffffffffffffffffffffffffffffffffffff1673ffffffffffffffffffffffffffffffffffffffff16815260200190815260200160002090506000818054905014610bb15760008160018380549050610b2f919061126a565b81548110610b4057610b3f61129e565b5b906000526020600020906005020190508060040160009054906101000a900460ff1680610b705750428160030154105b610baf576040517f08c379a0000000000000000000000000000000000000000000000000000000008152600401610ba6906119d7565b60405180910390fd5b505b600042905060006201518085610bc79190611523565b82610bd291906115f7565b90508386600354610be3919061126a565b610bed91906115f7565b600381905550610bfb610ecb565b848160000181815250508681602001818152505082816040018181525050818160600181815250506000816080019015159081151581525050838190806001815401808255809150506001900390600052602060002090600502016000909190919091506000820151816000015560208201518160010155604082015181600201556060820151816003015560808201518160040160006101000a81548160ff02191690831515021790555050503373ffffffffffffffffffffffffffffffffffffffff167f8ad24aacaef6be4fc6b47a84fa6bff9dfa020b118ed789def08941e4da1f314960405160405180910390a250505050505050565b610cfd610d0f565b610d0681610d9f565b50565b60025481565b60008054906101000a900473ffffffffffffffffffffffffffffffffffffffff1673ffffffffffffffffffffffffffffffffffffffff163373ffffffffffffffffffffffffffffffffffffffff1614610d9d576040517f08c379a0000000000000000000000000000000000000000000000000000000008152600401610d9490611a43565b60405180910390fd5b565b3373ffffffffffffffffffffffffffffffffffffffff168173ffffffffffffffffffffffffffffffffffffffff1603610e0d576040517f08c379a0000000000000000000000000000000000000000000000000000000008152600401610e0490611aaf565b60405180910390fd5b80600160006101000a81548173ffffffffffffffffffffffffffffffffffffffff021916908373ffffffffffffffffffffffffffffffffffffffff1602179055508073ffffffffffffffffffffffffffffffffffffffff1660008054906101000a900473ffffffffffffffffffffffffffffffffffffffff1673ffffffffffffffffffffffffffffffffffffffff167fed8889f560326eb138920d842192f0eb3dd22b4f139c87a2c57538e05bae127860405160405180910390a350565b6040518060a00160405280600081526020016000815260200160008152602001600081526020016000151581525090565b600080fd5b6000819050919050565b610f1481610f01565b8114610f1f57600080fd5b50565b600081359050610f3181610f0b565b92915050565b60008060408385031215610f4e57610f4d610efc565b5b6000610f5c85828601610f22565b9250506020610f6d85828601610f22565b9150509250929050565b610f8081610f01565b82525050565b6000602082019050610f9b6000830184610f77565b92915050565b6000819050919050565b610fb481610fa1565b82525050565b6000602082019050610fcf6000830184610fab565b92915050565b600073ffffffffffffffffffffffffffffffffffffffff82169050919050565b600061100082610fd5565b9050919050565b61101081610ff5565b82525050565b600060208201905061102b6000830184611007565b92915050565b61103a81610ff5565b811461104557600080fd5b50565b60008135905061105781611031565b92915050565b6000806040838503121561107457611073610efc565b5b600061108285828601611048565b925050602061109385828601610f22565b9150509250929050565b60008115159050919050565b6110b28161109d565b82525050565b600060a0820190506110cd6000830188610f77565b6110da6020830187610f77565b6110e76040830186610f77565b6110f46060830185610f77565b61110160808301846110a9565b9695505050505050565b60006020828403121561112157611120610efc565b5b600061112f84828501611048565b91505092915050565b7f4e487b7100000000000000000000000000000000000000000000000000000000600052601260045260246000fd5b7f4e487b7100000000000000000000000000000000000000000000000000000000600052601160045260246000fd5b60006111a182610f01565b91506111ac83610f01565b9250826111bc576111bb611138565b5b828204905092915050565b600082825260208201905092915050565b7f596f752068617665206e6f7420707572636861736564207468697320706f6c6960008201527f6379000000000000000000000000000000000000000000000000000000000000602082015250565b60006112346022836111c7565b915061123f826111d8565b604082019050919050565b6000602082019050818103600083015261126381611227565b9050919050565b600061127582610f01565b915061128083610f01565b925082820390508181111561129857611297611167565b5b92915050565b7f4e487b7100000000000000000000000000000000000000000000000000000000600052603260045260246000fd5b7f506f6c696379206e6f7420616374697665000000000000000000000000000000600082015250565b60006113036011836111c7565b915061130e826112cd565b602082019050919050565b60006020820190508181036000830152611332816112f6565b9050919050565b7f436c61696d20616c72656164792070726f636573736564000000000000000000600082015250565b600061136f6017836111c7565b915061137a82611339565b602082019050919050565b6000602082019050818103600083015261139e81611362565b9050919050565b60008160011c9050919050565b6000808291508390505b60018511156113fc578086048111156113d8576113d7611167565b5b60018516156113e75780820291505b80810290506113f5856113a5565b94506113bc565b94509492505050565b60008261141557600190506114d1565b8161142357600090506114d1565b8160018114611439576002811461144357611472565b60019150506114d1565b60ff84111561145557611454611167565b5b8360020a91508482111561146c5761146b611167565b5b506114d1565b5060208310610133831016604e8410600b84101617156114a75782820a9050838111156114a2576114a1611167565b5b6114d1565b6114b484848460016113b2565b925090508184048111156114cb576114ca611167565b5b81810290505b9392505050565b60006114e382610f01565b91506114ee83610f01565b925061151b7fffffffffffffffffffffffffffffffffffffffffffffffffffffffffffffffff8484611405565b905092915050565b600061152e82610f01565b915061153983610f01565b925082820261154781610f01565b9150828204841483151761155e5761155d611167565b5b5092915050565b7f457468657265756d207072696365206973206e6f742062656c6f77202431303060008201527f3000000000000000000000000000000000000000000000000000000000000000602082015250565b60006115c16021836111c7565b91506115cc82611565565b604082019050919050565b600060208201905081810360008301526115f0816115b4565b9050919050565b600061160282610f01565b915061160d83610f01565b925082820190508082111561162557611624611167565b5b92915050565b600069ffffffffffffffffffff82169050919050565b61164a8161162b565b811461165557600080fd5b50565b60008151905061166781611641565b92915050565b61167681610fa1565b811461168157600080fd5b50565b6000815190506116938161166d565b92915050565b6000815190506116a881610f0b565b92915050565b600080600080600060a086880312156116ca576116c9610efc565b5b60006116d888828901611658565b95505060206116e988828901611684565b94505060406116fa88828901611699565b935050606061170b88828901611699565b925050608061171c88828901611658565b9150509295509295909350565b7f4d7573742062652070726f706f736564206f776e657200000000000000000000600082015250565b600061175f6016836111c7565b915061176a82611729565b602082019050919050565b6000602082019050818103600083015261178e81611752565b9050919050565b600060ff82169050919050565b6117ab81611795565b81146117b657600080fd5b50565b6000815190506117c8816117a2565b92915050565b6000602082840312156117e4576117e3610efc565b5b60006117f2848285016117b9565b91505092915050565b7f4475726174696f6e2065786365656473206d6178696d756d206f662033206d6f60008201527f6e74687300000000000000000000000000000000000000000000000000000000602082015250565b60006118576024836111c7565b9150611862826117fb565b604082019050919050565b600060208201905081810360008301526118868161184a565b9050919050565b7f436f766572616765206578636565647320636170616369747921000000000000600082015250565b60006118c3601a836111c7565b91506118ce8261188d565b602082019050919050565b600060208201905081810360008301526118f2816118b6565b9050919050565b7f496e636f7272656374207072656d69756d20616d6f756e742073656e74000000600082015250565b600061192f601d836111c7565b915061193a826118f9565b602082019050919050565b6000602082019050818103600083015261195e81611922565b9050919050565b7f596f75206861766520616c72656164792070757263686173656420746869732060008201527f706f6c6963792e00000000000000000000000000000000000000000000000000602082015250565b60006119c16027836111c7565b91506119cc82611965565b604082019050919050565b600060208201905081810360008301526119f0816119b4565b9050919050565b7f4f6e6c792063616c6c61626c65206279206f776e657200000000000000000000600082015250565b6000611a2d6016836111c7565b9150611a38826119f7565b602082019050919050565b60006020820190508181036000830152611a5c81611a20565b9050919050565b7f43616e6e6f74207472616e7366657220746f2073656c66000000000000000000600082015250565b6000611a996017836111c7565b9150611aa482611a63565b602082019050919050565b60006020820190508181036000830152611ac881611a8c565b905091905056fea26469706673582212204d52309e088fe9dda0aba2ba0f4a2ac89fb7b417679b1a1416db1df26046a68f64736f6c63430008130033",
  "linkReferences": {},
  "deployedLinkReferences": {}
}