{
  "_format": "hh-sol-artifact-1",
  "contractName": "TestInsurance",
  "sourceName": "contracts/TestInsurance.sol",
  "abi": [
    {
      "inputs": [],
      "stateMutability": "nonpayable",
      "type": "constructor"
    },
    {
      "anonymous": false,
      "inputs": [
        {
          "indexed": true,
          "internalType": "address",
          "name": "insuredAddress",
          "type": "address"
        },
        {
          "indexed": false,
          "internalType": "uint256",
          "name": "coverAmount",
          "type": "uint256"
        }
      ],
      "name": "ClaimProcessed",
      "type": "event"
    },
    {
      "anonymous": false,
      "inputs": [
        {
          "indexed": true,
          "internalType": "address",
          "name": "from",
          "type": "address"
        },
        {
          "indexed": true,
          "internalType": "address",
          "name": "to",
          "type": "address"
        }
      ],
      "name": "OwnershipTransferRequested",
      "type": "event"
    },
    {
      "anonymous": false,
      "inputs": [
        {
          "indexed": true,
          "internalType": "address",
          "name": "from",
          "type": "address"
        },
        {
          "indexed": true,
          "internalType": "address",
          "name": "to",
          "type": "address"
        }
      ],
      "name": "OwnershipTransferred",
      "type": "event"
    },
    {
      "anonymous": false,
      "inputs": [
        {
          "indexed": true,
          "internalType": "address",
          "name": "insuredAddress",
          "type": "address"
        }
      ],
      "name": "PolicyCreated",
      "type": "event"
    },
    {
      "inputs": [],
      "name": "acceptOwnership",
      "outputs": [],
      "stateMutability": "nonpayable",
      "type": "function"
    },
    {
      "inputs": [
        {
          "internalType": "uint256",
          "name": "_coverAmount",
          "type": "uint256"
        },
        {
          "internalType": "uint256",
          "name": "_durationDays",
          "type": "uint256"
        }
      ],
      "name": "calculatePremium",
      "outputs": [
        {
          "internalType": "uint256",
          "name": "",
          "type": "uint256"
        }
      ],
      "stateMutability": "pure",
      "type": "function"
    },
    {
      "inputs": [],
      "name": "capacity",
      "outputs": [
        {
          "internalType": "uint256",
          "name": "",
          "type": "uint256"
        }
      ],
      "stateMutability": "view",
      "type": "function"
    },
    {
      "inputs": [],
      "name": "claim",
      "outputs": [],
      "stateMutability": "payable",
      "type": "function"
    },
    {
      "inputs": [
        {
          "internalType": "address",
          "name": "userAddress",
          "type": "address"
        }
      ],
      "name": "numPolicies",
      "outputs": [
        {
          "internalType": "uint256",
          "name": "",
          "type": "uint256"
        }
      ],
      "stateMutability": "view",
      "type": "function"
    },
    {
      "inputs": [],
      "name": "owner",
      "outputs": [
        {
          "internalType": "address",
          "name": "",
          "type": "address"
        }
      ],
      "stateMutability": "view",
      "type": "function"
    },
    {
      "inputs": [
        {
          "internalType": "address",
          "name": "",
          "type": "address"
        },
        {
          "internalType": "uint256",
          "name": "",
          "type": "uint256"
        }
      ],
      "name": "policies",
      "outputs": [
        {
          "internalType": "uint256",
          "name": "premium",
          "type": "uint256"
        },
        {
          "internalType": "uint256",
          "name": "coverAmount",
          "type": "uint256"
        },
        {
          "internalType": "uint256",
          "name": "startDate",
          "type": "uint256"
        },
        {
          "internalType": "uint256",
          "name": "endDate",
          "type": "uint256"
        },
        {
          "internalType": "bool",
          "name": "isClaimed",
          "type": "bool"
        }
      ],
      "stateMutability": "view",
      "type": "function"
    },
    {
      "inputs": [
        {
          "internalType": "uint256",
          "name": "_coverAmount",
          "type": "uint256"
        },
        {
          "internalType": "uint256",
          "name": "_durationDays",
          "type": "uint256"
        }
      ],
      "name": "purchaseInsurance",
      "outputs": [],
      "stateMutability": "payable",
      "type": "function"
    },
    {
      "inputs": [
        {
          "internalType": "address",
          "name": "to",
          "type": "address"
        }
      ],
      "name": "transferOwnership",
      "outputs": [],
      "stateMutability": "nonpayable",
      "type": "function"
    },
    {
      "inputs": [],
      "name": "withdraw",
      "outputs": [],
      "stateMutability": "payable",
      "type": "function"
    }
  ],
  "bytecode": "0x60806040523480156200001157600080fd5b50338060008073ffffffffffffffffffffffffffffffffffffffff168273ffffffffffffffffffffffffffffffffffffffff160362000087576040517f08c379a00000000000000000000000000000000000000000000000000000000081526004016200007e90620002b7565b60405180910390fd5b816000806101000a81548173ffffffffffffffffffffffffffffffffffffffff021916908373ffffffffffffffffffffffffffffffffffffffff160217905550600073ffffffffffffffffffffffffffffffffffffffff168173ffffffffffffffffffffffffffffffffffffffff16146200010e576200010d816200012760201b60201c565b5b50505068056bc75e2d631000006002819055506200034b565b3373ffffffffffffffffffffffffffffffffffffffff168173ffffffffffffffffffffffffffffffffffffffff160362000198576040517f08c379a00000000000000000000000000000000000000000000000000000000081526004016200018f9062000329565b60405180910390fd5b80600160006101000a81548173ffffffffffffffffffffffffffffffffffffffff021916908373ffffffffffffffffffffffffffffffffffffffff1602179055508073ffffffffffffffffffffffffffffffffffffffff1660008054906101000a900473ffffffffffffffffffffffffffffffffffffffff1673ffffffffffffffffffffffffffffffffffffffff167fed8889f560326eb138920d842192f0eb3dd22b4f139c87a2c57538e05bae127860405160405180910390a350565b600082825260208201905092915050565b7f43616e6e6f7420736574206f776e657220746f207a65726f0000000000000000600082015250565b60006200029f60188362000256565b9150620002ac8262000267565b602082019050919050565b60006020820190508181036000830152620002d28162000290565b9050919050565b7f43616e6e6f74207472616e7366657220746f2073656c66000000000000000000600082015250565b60006200031160178362000256565b91506200031e82620002d9565b602082019050919050565b60006020820190508181036000830152620003448162000302565b9050919050565b61140c806200035b6000396000f3fe6080604052600436106100905760003560e01c80638da5cb5b116100595780638da5cb5b1461012857806390b4f12b14610153578063a28b843014610194578063e515cc7f146101d1578063f2fde38b146101ed57610090565b806212100c146100955780633ccfd60b146100d25780634e71d92d146100dc5780635cfc1a51146100e657806379ba509714610111575b600080fd5b3480156100a157600080fd5b506100bc60048036038101906100b79190610c46565b610216565b6040516100c99190610c95565b60405180910390f35b6100da610221565b005b6100e4610272565b005b3480156100f257600080fd5b506100fb610498565b6040516101089190610c95565b60405180910390f35b34801561011d57600080fd5b5061012661049e565b005b34801561013457600080fd5b5061013d610633565b60405161014a9190610cf1565b60405180910390f35b34801561015f57600080fd5b5061017a60048036038101906101759190610d38565b61065c565b60405161018b959493929190610d93565b60405180910390f35b3480156101a057600080fd5b506101bb60048036038101906101b69190610de6565b6106bc565b6040516101c89190610c95565b60405180910390f35b6101eb60048036038101906101e69190610c46565b610708565b005b3480156101f957600080fd5b50610214600480360381019061020f9190610de6565b610a0a565b005b600082905092915050565b610229610a1e565b3373ffffffffffffffffffffffffffffffffffffffff166108fc479081150290604051600060405180830381858888f1935050505015801561026f573d6000803e3d6000fd5b50565b6000600360003373ffffffffffffffffffffffffffffffffffffffff1673ffffffffffffffffffffffffffffffffffffffff168152602001908152602001600020905060008180549050116102fc576040517f08c379a00000000000000000000000000000000000000000000000000000000081526004016102f390610e96565b60405180910390fd5b600081600183805490506103109190610ee5565b8154811061032157610320610f19565b5b9060005260206000209060050201905042816002015411158015610349575080600301544211155b610388576040517f08c379a000000000000000000000000000000000000000000000000000000000815260040161037f90610f94565b60405180910390fd5b8060040160009054906101000a900460ff16156103da576040517f08c379a00000000000000000000000000000000000000000000000000000000081526004016103d190611000565b60405180910390fd5b60018160040160006101000a81548160ff0219169083151502179055503373ffffffffffffffffffffffffffffffffffffffff166108fc82600101549081150290604051600060405180830381858888f19350505050158015610441573d6000803e3d6000fd5b503373ffffffffffffffffffffffffffffffffffffffff167fe80d36773458ce7a03850714245b45fa8535fda364366bf7552e38ec63fbf997826001015460405161048c9190610c95565b60405180910390a25050565b60025481565b600160009054906101000a900473ffffffffffffffffffffffffffffffffffffffff1673ffffffffffffffffffffffffffffffffffffffff163373ffffffffffffffffffffffffffffffffffffffff161461052e576040517f08c379a00000000000000000000000000000000000000000000000000000000081526004016105259061106c565b60405180910390fd5b60008060009054906101000a900473ffffffffffffffffffffffffffffffffffffffff169050336000806101000a81548173ffffffffffffffffffffffffffffffffffffffff021916908373ffffffffffffffffffffffffffffffffffffffff1602179055506000600160006101000a81548173ffffffffffffffffffffffffffffffffffffffff021916908373ffffffffffffffffffffffffffffffffffffffff1602179055503373ffffffffffffffffffffffffffffffffffffffff168173ffffffffffffffffffffffffffffffffffffffff167f8be0079c531659141344cd1fd0a4f28419497f9722a3daafe3b4186f6b6457e060405160405180910390a350565b60008060009054906101000a900473ffffffffffffffffffffffffffffffffffffffff16905090565b6003602052816000526040600020818154811061067857600080fd5b9060005260206000209060050201600091509150508060000154908060010154908060020154908060030154908060040160009054906101000a900460ff16905085565b6000600360008373ffffffffffffffffffffffffffffffffffffffff1673ffffffffffffffffffffffffffffffffffffffff168152602001908152602001600020805490509050919050565b605a81111561074c576040517f08c379a0000000000000000000000000000000000000000000000000000000008152600401610743906110fe565b60405180910390fd5b600254821115610791576040517f08c379a00000000000000000000000000000000000000000000000000000000081526004016107889061116a565b60405180910390fd5b600061079d8383610216565b90508034146107e1576040517f08c379a00000000000000000000000000000000000000000000000000000000081526004016107d8906111d6565b60405180910390fd5b6000600360003373ffffffffffffffffffffffffffffffffffffffff1673ffffffffffffffffffffffffffffffffffffffff168152602001908152602001600020905060008180549050146108c657600081600183805490506108449190610ee5565b8154811061085557610854610f19565b5b906000526020600020906005020190508060040160009054906101000a900460ff16806108855750428160030154105b6108c4576040517f08c379a00000000000000000000000000000000000000000000000000000000081526004016108bb90611268565b60405180910390fd5b505b6000429050600062015180856108dc9190611288565b826108e791906112ca565b905083866002546108f89190610ee5565b61090291906112ca565b600281905550610910610bda565b848160000181815250508681602001818152505082816040018181525050818160600181815250506000816080019015159081151581525050838190806001815401808255809150506001900390600052602060002090600502016000909190919091506000820151816000015560208201518160010155604082015181600201556060820151816003015560808201518160040160006101000a81548160ff02191690831515021790555050503373ffffffffffffffffffffffffffffffffffffffff167f2f111d8a56aa0ad671b0442ae028827407496656571a697781157db90a03ae1460405160405180910390a250505050505050565b610a12610a1e565b610a1b81610aae565b50565b60008054906101000a900473ffffffffffffffffffffffffffffffffffffffff1673ffffffffffffffffffffffffffffffffffffffff163373ffffffffffffffffffffffffffffffffffffffff1614610aac576040517f08c379a0000000000000000000000000000000000000000000000000000000008152600401610aa39061134a565b60405180910390fd5b565b3373ffffffffffffffffffffffffffffffffffffffff168173ffffffffffffffffffffffffffffffffffffffff1603610b1c576040517f08c379a0000000000000000000000000000000000000000000000000000000008152600401610b13906113b6565b60405180910390fd5b80600160006101000a81548173ffffffffffffffffffffffffffffffffffffffff021916908373ffffffffffffffffffffffffffffffffffffffff1602179055508073ffffffffffffffffffffffffffffffffffffffff1660008054906101000a900473ffffffffffffffffffffffffffffffffffffffff1673ffffffffffffffffffffffffffffffffffffffff167fed8889f560326eb138920d842192f0eb3dd22b4f139c87a2c57538e05bae127860405160405180910390a350565b6040518060a00160405280600081526020016000815260200160008152602001600081526020016000151581525090565b600080fd5b6000819050919050565b610c2381610c10565b8114610c2e57600080fd5b50565b600081359050610c4081610c1a565b92915050565b60008060408385031215610c5d57610c5c610c0b565b5b6000610c6b85828601610c31565b9250506020610c7c85828601610c31565b9150509250929050565b610c8f81610c10565b82525050565b6000602082019050610caa6000830184610c86565b92915050565b600073ffffffffffffffffffffffffffffffffffffffff82169050919050565b6000610cdb82610cb0565b9050919050565b610ceb81610cd0565b82525050565b6000602082019050610d066000830184610ce2565b92915050565b610d1581610cd0565b8114610d2057600080fd5b50565b600081359050610d3281610d0c565b92915050565b60008060408385031215610d4f57610d4e610c0b565b5b6000610d5d85828601610d23565b9250506020610d6e85828601610c31565b9150509250929050565b60008115159050919050565b610d8d81610d78565b82525050565b600060a082019050610da86000830188610c86565b610db56020830187610c86565b610dc26040830186610c86565b610dcf6060830185610c86565b610ddc6080830184610d84565b9695505050505050565b600060208284031215610dfc57610dfb610c0b565b5b6000610e0a84828501610d23565b91505092915050565b600082825260208201905092915050565b7f596f752068617665206e6f7420707572636861736564207468697320706f6c6960008201527f6379000000000000000000000000000000000000000000000000000000000000602082015250565b6000610e80602283610e13565b9150610e8b82610e24565b604082019050919050565b60006020820190508181036000830152610eaf81610e73565b9050919050565b7f4e487b7100000000000000000000000000000000000000000000000000000000600052601160045260246000fd5b6000610ef082610c10565b9150610efb83610c10565b9250828203905081811115610f1357610f12610eb6565b5b92915050565b7f4e487b7100000000000000000000000000000000000000000000000000000000600052603260045260246000fd5b7f506f6c696379206e6f7420616374697665000000000000000000000000000000600082015250565b6000610f7e601183610e13565b9150610f8982610f48565b602082019050919050565b60006020820190508181036000830152610fad81610f71565b9050919050565b7f436c61696d20616c72656164792070726f636573736564000000000000000000600082015250565b6000610fea601783610e13565b9150610ff582610fb4565b602082019050919050565b6000602082019050818103600083015261101981610fdd565b9050919050565b7f4d7573742062652070726f706f736564206f776e657200000000000000000000600082015250565b6000611056601683610e13565b915061106182611020565b602082019050919050565b6000602082019050818103600083015261108581611049565b9050919050565b7f4475726174696f6e2065786365656473206d6178696d756d206f662033206d6f60008201527f6e74687300000000000000000000000000000000000000000000000000000000602082015250565b60006110e8602483610e13565b91506110f38261108c565b604082019050919050565b60006020820190508181036000830152611117816110db565b9050919050565b7f436f76657220616d6f756e742065786365656473206361706163697479210000600082015250565b6000611154601e83610e13565b915061115f8261111e565b602082019050919050565b6000602082019050818103600083015261118381611147565b9050919050565b7f496e636f7272656374207072656d69756d20616d6f756e742073656e74000000600082015250565b60006111c0601d83610e13565b91506111cb8261118a565b602082019050919050565b600060208201905081810360008301526111ef816111b3565b9050919050565b7f596f75206861766520616c72656164792070757263686173656420746869732060008201527f706f6c6963792e00000000000000000000000000000000000000000000000000602082015250565b6000611252602783610e13565b915061125d826111f6565b604082019050919050565b6000602082019050818103600083015261128181611245565b9050919050565b600061129382610c10565b915061129e83610c10565b92508282026112ac81610c10565b915082820484148315176112c3576112c2610eb6565b5b5092915050565b60006112d582610c10565b91506112e083610c10565b92508282019050808211156112f8576112f7610eb6565b5b92915050565b7f4f6e6c792063616c6c61626c65206279206f776e657200000000000000000000600082015250565b6000611334601683610e13565b915061133f826112fe565b602082019050919050565b6000602082019050818103600083015261136381611327565b9050919050565b7f43616e6e6f74207472616e7366657220746f2073656c66000000000000000000600082015250565b60006113a0601783610e13565b91506113ab8261136a565b602082019050919050565b600060208201905081810360008301526113cf81611393565b905091905056fea264697066735822122081557866a9e5cd16770a145dca0e5f14539d826a8e242f3e22478ba2653baddd64736f6c63430008130033",
  "linkReferences": {},
  "deployedLinkReferences": {}
}