{
  "_format": "hh-sol-artifact-1",
  "contractName": "TestInsurance",
  "sourceName": "contracts/TestInsurance.sol",
  "abi": [
    {
      "inputs": [],
      "name": "acceptOwnership",
      "outputs": [],
      "stateMutability": "nonpayable",
      "type": "function"
    },
    {
      "inputs": [],
      "name": "claim",
      "outputs": [],
      "stateMutability": "payable",
      "type": "function"
    },
    {
      "inputs": [],
      "stateMutability": "nonpayable",
      "type": "constructor"
    },
    {
      "anonymous": false,
      "inputs": [
        {
          "indexed": true,
          "internalType": "address",
          "name": "insuredAddress",
          "type": "address"
        },
        {
          "indexed": false,
          "internalType": "uint256",
          "name": "coverAmount",
          "type": "uint256"
        }
      ],
      "name": "ClaimProcessed",
      "type": "event"
    },
    {
      "anonymous": false,
      "inputs": [
        {
          "indexed": true,
          "internalType": "address",
          "name": "from",
          "type": "address"
        },
        {
          "indexed": true,
          "internalType": "address",
          "name": "to",
          "type": "address"
        }
      ],
      "name": "OwnershipTransferRequested",
      "type": "event"
    },
    {
      "anonymous": false,
      "inputs": [
        {
          "indexed": true,
          "internalType": "address",
          "name": "from",
          "type": "address"
        },
        {
          "indexed": true,
          "internalType": "address",
          "name": "to",
          "type": "address"
        }
      ],
      "name": "OwnershipTransferred",
      "type": "event"
    },
    {
      "anonymous": false,
      "inputs": [
        {
          "indexed": true,
          "internalType": "address",
          "name": "insuredAddress",
          "type": "address"
        }
      ],
      "name": "PolicyCreated",
      "type": "event"
    },
    {
      "inputs": [
        {
          "internalType": "uint256",
          "name": "_coverAmount",
          "type": "uint256"
        },
        {
          "internalType": "uint256",
          "name": "_durationDays",
          "type": "uint256"
        }
      ],
      "name": "purchaseInsurance",
      "outputs": [],
      "stateMutability": "payable",
      "type": "function"
    },
    {
      "inputs": [
        {
          "internalType": "address",
          "name": "to",
          "type": "address"
        }
      ],
      "name": "transferOwnership",
      "outputs": [],
      "stateMutability": "nonpayable",
      "type": "function"
    },
    {
      "inputs": [],
      "name": "withdraw",
      "outputs": [],
      "stateMutability": "payable",
      "type": "function"
    },
    {
      "inputs": [
        {
          "internalType": "uint256",
          "name": "_coverAmount",
          "type": "uint256"
        },
        {
          "internalType": "uint256",
          "name": "_durationDays",
          "type": "uint256"
        }
      ],
      "name": "calculatePremium",
      "outputs": [
        {
          "internalType": "uint256",
          "name": "",
          "type": "uint256"
        }
      ],
      "stateMutability": "pure",
      "type": "function"
    },
    {
      "inputs": [],
      "name": "capacity",
      "outputs": [
        {
          "internalType": "uint256",
          "name": "",
          "type": "uint256"
        }
      ],
      "stateMutability": "view",
      "type": "function"
    },
    {
      "inputs": [],
      "name": "numPolicies",
      "outputs": [
        {
          "internalType": "uint256",
          "name": "",
          "type": "uint256"
        }
      ],
      "stateMutability": "view",
      "type": "function"
    },
    {
      "inputs": [],
      "name": "owner",
      "outputs": [
        {
          "internalType": "address",
          "name": "",
          "type": "address"
        }
      ],
      "stateMutability": "view",
      "type": "function"
    },
    {
      "inputs": [
        {
          "internalType": "address",
          "name": "",
          "type": "address"
        },
        {
          "internalType": "uint256",
          "name": "",
          "type": "uint256"
        }
      ],
      "name": "policies",
      "outputs": [
        {
          "internalType": "uint256",
          "name": "premium",
          "type": "uint256"
        },
        {
          "internalType": "uint256",
          "name": "coverAmount",
          "type": "uint256"
        },
        {
          "internalType": "uint256",
          "name": "startDate",
          "type": "uint256"
        },
        {
          "internalType": "uint256",
          "name": "endDate",
          "type": "uint256"
        },
        {
          "internalType": "bool",
          "name": "isClaimed",
          "type": "bool"
        }
      ],
      "stateMutability": "view",
      "type": "function"
    }
  ],
  "bytecode": "0x60806040523480156200001157600080fd5b50338060008073ffffffffffffffffffffffffffffffffffffffff168273ffffffffffffffffffffffffffffffffffffffff160362000087576040517f08c379a00000000000000000000000000000000000000000000000000000000081526004016200007e90620002b7565b60405180910390fd5b816000806101000a81548173ffffffffffffffffffffffffffffffffffffffff021916908373ffffffffffffffffffffffffffffffffffffffff160217905550600073ffffffffffffffffffffffffffffffffffffffff168173ffffffffffffffffffffffffffffffffffffffff16146200010e576200010d816200012760201b60201c565b5b50505068056bc75e2d631000006002819055506200034b565b3373ffffffffffffffffffffffffffffffffffffffff168173ffffffffffffffffffffffffffffffffffffffff160362000198576040517f08c379a00000000000000000000000000000000000000000000000000000000081526004016200018f9062000329565b60405180910390fd5b80600160006101000a81548173ffffffffffffffffffffffffffffffffffffffff021916908373ffffffffffffffffffffffffffffffffffffffff1602179055508073ffffffffffffffffffffffffffffffffffffffff1660008054906101000a900473ffffffffffffffffffffffffffffffffffffffff1673ffffffffffffffffffffffffffffffffffffffff167fed8889f560326eb138920d842192f0eb3dd22b4f139c87a2c57538e05bae127860405160405180910390a350565b600082825260208201905092915050565b7f43616e6e6f7420736574206f776e657220746f207a65726f0000000000000000600082015250565b60006200029f60188362000256565b9150620002ac8262000267565b602082019050919050565b60006020820190508181036000830152620002d28162000290565b9050919050565b7f43616e6e6f74207472616e7366657220746f2073656c66000000000000000000600082015250565b60006200031160178362000256565b91506200031e82620002d9565b602082019050919050565b60006020820190508181036000830152620003448162000302565b9050919050565b6113f8806200035b6000396000f3fe6080604052600436106100905760003560e01c806379ba50971161005957806379ba50971461013c5780638da5cb5b1461015357806390b4f12b1461017e578063e515cc7f146101bf578063f2fde38b146101db57610090565b806212100c146100955780632c441270146100d25780633ccfd60b146100fd5780634e71d92d146101075780635cfc1a5114610111575b600080fd5b3480156100a157600080fd5b506100bc60048036038101906100b79190610c32565b610204565b6040516100c99190610c81565b60405180910390f35b3480156100de57600080fd5b506100e761020f565b6040516100f49190610c81565b60405180910390f35b610105610259565b005b61010f6102aa565b005b34801561011d57600080fd5b506101266104d0565b6040516101339190610c81565b60405180910390f35b34801561014857600080fd5b506101516104d6565b005b34801561015f57600080fd5b5061016861066b565b6040516101759190610cdd565b60405180910390f35b34801561018a57600080fd5b506101a560048036038101906101a09190610d24565b610694565b6040516101b6959493929190610d7f565b60405180910390f35b6101d960048036038101906101d49190610c32565b6106f4565b005b3480156101e757600080fd5b5061020260048036038101906101fd9190610dd2565b6109f6565b005b600082905092915050565b6000600360003373ffffffffffffffffffffffffffffffffffffffff1673ffffffffffffffffffffffffffffffffffffffff16815260200190815260200160002080549050905090565b610261610a0a565b3373ffffffffffffffffffffffffffffffffffffffff166108fc479081150290604051600060405180830381858888f193505050501580156102a7573d6000803e3d6000fd5b50565b6000600360003373ffffffffffffffffffffffffffffffffffffffff1673ffffffffffffffffffffffffffffffffffffffff16815260200190815260200160002090506000818054905011610334576040517f08c379a000000000000000000000000000000000000000000000000000000000815260040161032b90610e82565b60405180910390fd5b600081600183805490506103489190610ed1565b8154811061035957610358610f05565b5b9060005260206000209060050201905042816002015411158015610381575080600301544211155b6103c0576040517f08c379a00000000000000000000000000000000000000000000000000000000081526004016103b790610f80565b60405180910390fd5b8060040160009054906101000a900460ff1615610412576040517f08c379a000000000000000000000000000000000000000000000000000000000815260040161040990610fec565b60405180910390fd5b60018160040160006101000a81548160ff0219169083151502179055503373ffffffffffffffffffffffffffffffffffffffff166108fc82600101549081150290604051600060405180830381858888f19350505050158015610479573d6000803e3d6000fd5b503373ffffffffffffffffffffffffffffffffffffffff167fe80d36773458ce7a03850714245b45fa8535fda364366bf7552e38ec63fbf99782600101546040516104c49190610c81565b60405180910390a25050565b60025481565b600160009054906101000a900473ffffffffffffffffffffffffffffffffffffffff1673ffffffffffffffffffffffffffffffffffffffff163373ffffffffffffffffffffffffffffffffffffffff1614610566576040517f08c379a000000000000000000000000000000000000000000000000000000000815260040161055d90611058565b60405180910390fd5b60008060009054906101000a900473ffffffffffffffffffffffffffffffffffffffff169050336000806101000a81548173ffffffffffffffffffffffffffffffffffffffff021916908373ffffffffffffffffffffffffffffffffffffffff1602179055506000600160006101000a81548173ffffffffffffffffffffffffffffffffffffffff021916908373ffffffffffffffffffffffffffffffffffffffff1602179055503373ffffffffffffffffffffffffffffffffffffffff168173ffffffffffffffffffffffffffffffffffffffff167f8be0079c531659141344cd1fd0a4f28419497f9722a3daafe3b4186f6b6457e060405160405180910390a350565b60008060009054906101000a900473ffffffffffffffffffffffffffffffffffffffff16905090565b600360205281600052604060002081815481106106b057600080fd5b9060005260206000209060050201600091509150508060000154908060010154908060020154908060030154908060040160009054906101000a900460ff16905085565b605a811115610738576040517f08c379a000000000000000000000000000000000000000000000000000000000815260040161072f906110ea565b60405180910390fd5b60025482111561077d576040517f08c379a000000000000000000000000000000000000000000000000000000000815260040161077490611156565b60405180910390fd5b60006107898383610204565b90508034146107cd576040517f08c379a00000000000000000000000000000000000000000000000000000000081526004016107c4906111c2565b60405180910390fd5b6000600360003373ffffffffffffffffffffffffffffffffffffffff1673ffffffffffffffffffffffffffffffffffffffff168152602001908152602001600020905060008180549050146108b257600081600183805490506108309190610ed1565b8154811061084157610840610f05565b5b906000526020600020906005020190508060040160009054906101000a900460ff16806108715750428160030154105b6108b0576040517f08c379a00000000000000000000000000000000000000000000000000000000081526004016108a790611254565b60405180910390fd5b505b6000429050600062015180856108c89190611274565b826108d391906112b6565b905083866002546108e49190610ed1565b6108ee91906112b6565b6002819055506108fc610bc6565b848160000181815250508681602001818152505082816040018181525050818160600181815250506000816080019015159081151581525050838190806001815401808255809150506001900390600052602060002090600502016000909190919091506000820151816000015560208201518160010155604082015181600201556060820151816003015560808201518160040160006101000a81548160ff02191690831515021790555050503373ffffffffffffffffffffffffffffffffffffffff167f2f111d8a56aa0ad671b0442ae028827407496656571a697781157db90a03ae1460405160405180910390a250505050505050565b6109fe610a0a565b610a0781610a9a565b50565b60008054906101000a900473ffffffffffffffffffffffffffffffffffffffff1673ffffffffffffffffffffffffffffffffffffffff163373ffffffffffffffffffffffffffffffffffffffff1614610a98576040517f08c379a0000000000000000000000000000000000000000000000000000000008152600401610a8f90611336565b60405180910390fd5b565b3373ffffffffffffffffffffffffffffffffffffffff168173ffffffffffffffffffffffffffffffffffffffff1603610b08576040517f08c379a0000000000000000000000000000000000000000000000000000000008152600401610aff906113a2565b60405180910390fd5b80600160006101000a81548173ffffffffffffffffffffffffffffffffffffffff021916908373ffffffffffffffffffffffffffffffffffffffff1602179055508073ffffffffffffffffffffffffffffffffffffffff1660008054906101000a900473ffffffffffffffffffffffffffffffffffffffff1673ffffffffffffffffffffffffffffffffffffffff167fed8889f560326eb138920d842192f0eb3dd22b4f139c87a2c57538e05bae127860405160405180910390a350565b6040518060a00160405280600081526020016000815260200160008152602001600081526020016000151581525090565b600080fd5b6000819050919050565b610c0f81610bfc565b8114610c1a57600080fd5b50565b600081359050610c2c81610c06565b92915050565b60008060408385031215610c4957610c48610bf7565b5b6000610c5785828601610c1d565b9250506020610c6885828601610c1d565b9150509250929050565b610c7b81610bfc565b82525050565b6000602082019050610c966000830184610c72565b92915050565b600073ffffffffffffffffffffffffffffffffffffffff82169050919050565b6000610cc782610c9c565b9050919050565b610cd781610cbc565b82525050565b6000602082019050610cf26000830184610cce565b92915050565b610d0181610cbc565b8114610d0c57600080fd5b50565b600081359050610d1e81610cf8565b92915050565b60008060408385031215610d3b57610d3a610bf7565b5b6000610d4985828601610d0f565b9250506020610d5a85828601610c1d565b9150509250929050565b60008115159050919050565b610d7981610d64565b82525050565b600060a082019050610d946000830188610c72565b610da16020830187610c72565b610dae6040830186610c72565b610dbb6060830185610c72565b610dc86080830184610d70565b9695505050505050565b600060208284031215610de857610de7610bf7565b5b6000610df684828501610d0f565b91505092915050565b600082825260208201905092915050565b7f596f752068617665206e6f7420707572636861736564207468697320706f6c6960008201527f6379000000000000000000000000000000000000000000000000000000000000602082015250565b6000610e6c602283610dff565b9150610e7782610e10565b604082019050919050565b60006020820190508181036000830152610e9b81610e5f565b9050919050565b7f4e487b7100000000000000000000000000000000000000000000000000000000600052601160045260246000fd5b6000610edc82610bfc565b9150610ee783610bfc565b9250828203905081811115610eff57610efe610ea2565b5b92915050565b7f4e487b7100000000000000000000000000000000000000000000000000000000600052603260045260246000fd5b7f506f6c696379206e6f7420616374697665000000000000000000000000000000600082015250565b6000610f6a601183610dff565b9150610f7582610f34565b602082019050919050565b60006020820190508181036000830152610f9981610f5d565b9050919050565b7f436c61696d20616c72656164792070726f636573736564000000000000000000600082015250565b6000610fd6601783610dff565b9150610fe182610fa0565b602082019050919050565b6000602082019050818103600083015261100581610fc9565b9050919050565b7f4d7573742062652070726f706f736564206f776e657200000000000000000000600082015250565b6000611042601683610dff565b915061104d8261100c565b602082019050919050565b6000602082019050818103600083015261107181611035565b9050919050565b7f4475726174696f6e2065786365656473206d6178696d756d206f662033206d6f60008201527f6e74687300000000000000000000000000000000000000000000000000000000602082015250565b60006110d4602483610dff565b91506110df82611078565b604082019050919050565b60006020820190508181036000830152611103816110c7565b9050919050565b7f436f76657220616d6f756e742065786365656473206361706163697479210000600082015250565b6000611140601e83610dff565b915061114b8261110a565b602082019050919050565b6000602082019050818103600083015261116f81611133565b9050919050565b7f496e636f7272656374207072656d69756d20616d6f756e742073656e74000000600082015250565b60006111ac601d83610dff565b91506111b782611176565b602082019050919050565b600060208201905081810360008301526111db8161119f565b9050919050565b7f596f75206861766520616c72656164792070757263686173656420746869732060008201527f706f6c6963792e00000000000000000000000000000000000000000000000000602082015250565b600061123e602783610dff565b9150611249826111e2565b604082019050919050565b6000602082019050818103600083015261126d81611231565b9050919050565b600061127f82610bfc565b915061128a83610bfc565b925082820261129881610bfc565b915082820484148315176112af576112ae610ea2565b5b5092915050565b60006112c182610bfc565b91506112cc83610bfc565b92508282019050808211156112e4576112e3610ea2565b5b92915050565b7f4f6e6c792063616c6c61626c65206279206f776e657200000000000000000000600082015250565b6000611320601683610dff565b915061132b826112ea565b602082019050919050565b6000602082019050818103600083015261134f81611313565b9050919050565b7f43616e6e6f74207472616e7366657220746f2073656c66000000000000000000600082015250565b600061138c601783610dff565b915061139782611356565b602082019050919050565b600060208201905081810360008301526113bb8161137f565b905091905056fea2646970667358221220ddc29ca68add8a10a65d9c7ab630fc79f8c3046d1a690c1ca9b45716340aee0664736f6c63430008130033",
  "linkReferences": {},
  "deployedLinkReferences": {}
}