{
  "_format": "hh-sol-artifact-1",
  "contractName": "WeatherInsurance",
  "sourceName": "contracts/WeatherInsuranceContract.sol",
  "abi": [
    {
      "inputs": [],
      "stateMutability": "nonpayable",
      "type": "constructor"
    },
    {
      "anonymous": false,
      "inputs": [
        {
          "indexed": true,
          "internalType": "bytes32",
          "name": "id",
          "type": "bytes32"
        }
      ],
      "name": "ChainlinkCancelled",
      "type": "event"
    },
    {
      "anonymous": false,
      "inputs": [
        {
          "indexed": true,
          "internalType": "bytes32",
          "name": "id",
          "type": "bytes32"
        }
      ],
      "name": "ChainlinkFulfilled",
      "type": "event"
    },
    {
      "anonymous": false,
      "inputs": [
        {
          "indexed": true,
          "internalType": "bytes32",
          "name": "id",
          "type": "bytes32"
        }
      ],
      "name": "ChainlinkRequested",
      "type": "event"
    },
    {
      "anonymous": false,
      "inputs": [
        {
          "indexed": true,
          "internalType": "address",
          "name": "insuredAddress",
          "type": "address"
        },
        {
          "indexed": false,
          "internalType": "uint256",
          "name": "coverAmount",
          "type": "uint256"
        }
      ],
      "name": "ClaimProcessed",
      "type": "event"
    },
    {
      "anonymous": false,
      "inputs": [
        {
          "indexed": true,
          "internalType": "address",
          "name": "from",
          "type": "address"
        },
        {
          "indexed": true,
          "internalType": "address",
          "name": "to",
          "type": "address"
        }
      ],
      "name": "OwnershipTransferRequested",
      "type": "event"
    },
    {
      "anonymous": false,
      "inputs": [
        {
          "indexed": true,
          "internalType": "address",
          "name": "from",
          "type": "address"
        },
        {
          "indexed": true,
          "internalType": "address",
          "name": "to",
          "type": "address"
        }
      ],
      "name": "OwnershipTransferred",
      "type": "event"
    },
    {
      "anonymous": false,
      "inputs": [
        {
          "indexed": true,
          "internalType": "address",
          "name": "insuredAddress",
          "type": "address"
        }
      ],
      "name": "PolicyCreated",
      "type": "event"
    },
    {
      "anonymous": false,
      "inputs": [
        {
          "indexed": true,
          "internalType": "bytes32",
          "name": "requestId",
          "type": "bytes32"
        },
        {
          "indexed": false,
          "internalType": "uint256",
          "name": "precipitate",
          "type": "uint256"
        }
      ],
      "name": "RequestPrecipitate",
      "type": "event"
    },
    {
      "inputs": [],
      "name": "acceptOwnership",
      "outputs": [],
      "stateMutability": "nonpayable",
      "type": "function"
    },
    {
      "inputs": [
        {
          "internalType": "uint256",
          "name": "_coverAmount",
          "type": "uint256"
        },
        {
          "internalType": "uint256",
          "name": "_durationDays",
          "type": "uint256"
        }
      ],
      "name": "calculatePremium",
      "outputs": [
        {
          "internalType": "uint256",
          "name": "",
          "type": "uint256"
        }
      ],
      "stateMutability": "pure",
      "type": "function"
    },
    {
      "inputs": [],
      "name": "capacity",
      "outputs": [
        {
          "internalType": "uint256",
          "name": "",
          "type": "uint256"
        }
      ],
      "stateMutability": "view",
      "type": "function"
    },
    {
      "inputs": [],
      "name": "claim",
      "outputs": [],
      "stateMutability": "nonpayable",
      "type": "function"
    },
    {
      "inputs": [
        {
          "internalType": "bytes32",
          "name": "_requestId",
          "type": "bytes32"
        },
        {
          "internalType": "uint256",
          "name": "_precipitate",
          "type": "uint256"
        }
      ],
      "name": "fulfill",
      "outputs": [],
      "stateMutability": "nonpayable",
      "type": "function"
    },
    {
      "inputs": [],
      "name": "fundPolicy",
      "outputs": [],
      "stateMutability": "payable",
      "type": "function"
    },
    {
      "inputs": [],
      "name": "getNumPolicies",
      "outputs": [
        {
          "internalType": "uint256",
          "name": "",
          "type": "uint256"
        }
      ],
      "stateMutability": "view",
      "type": "function"
    },
    {
      "inputs": [],
      "name": "owner",
      "outputs": [
        {
          "internalType": "address",
          "name": "",
          "type": "address"
        }
      ],
      "stateMutability": "view",
      "type": "function"
    },
    {
      "inputs": [],
      "name": "payout",
      "outputs": [],
      "stateMutability": "payable",
      "type": "function"
    },
    {
      "inputs": [
        {
          "internalType": "address",
          "name": "",
          "type": "address"
        },
        {
          "internalType": "uint256",
          "name": "",
          "type": "uint256"
        }
      ],
      "name": "policies",
      "outputs": [
        {
          "internalType": "uint256",
          "name": "premium",
          "type": "uint256"
        },
        {
          "internalType": "uint256",
          "name": "coverAmount",
          "type": "uint256"
        },
        {
          "internalType": "uint256",
          "name": "startDate",
          "type": "uint256"
        },
        {
          "internalType": "uint256",
          "name": "endDate",
          "type": "uint256"
        },
        {
          "internalType": "uint256",
          "name": "latitude",
          "type": "uint256"
        },
        {
          "internalType": "uint256",
          "name": "longitude",
          "type": "uint256"
        },
        {
          "internalType": "bool",
          "name": "isClaimed",
          "type": "bool"
        }
      ],
      "stateMutability": "view",
      "type": "function"
    },
    {
      "inputs": [],
      "name": "precipitate",
      "outputs": [
        {
          "internalType": "uint256",
          "name": "",
          "type": "uint256"
        }
      ],
      "stateMutability": "view",
      "type": "function"
    },
    {
      "inputs": [
        {
          "internalType": "uint256",
          "name": "_coverAmount",
          "type": "uint256"
        },
        {
          "internalType": "uint256",
          "name": "_durationDays",
          "type": "uint256"
        },
        {
          "internalType": "uint256",
          "name": "_lat",
          "type": "uint256"
        },
        {
          "internalType": "uint256",
          "name": "_lon",
          "type": "uint256"
        }
      ],
      "name": "purchaseInsurance",
      "outputs": [],
      "stateMutability": "payable",
      "type": "function"
    },
    {
      "inputs": [],
      "name": "requestPrecipitateData",
      "outputs": [
        {
          "internalType": "bytes32",
          "name": "requestId",
          "type": "bytes32"
        }
      ],
      "stateMutability": "nonpayable",
      "type": "function"
    },
    {
      "inputs": [
        {
          "internalType": "address",
          "name": "to",
          "type": "address"
        }
      ],
      "name": "transferOwnership",
      "outputs": [],
      "stateMutability": "nonpayable",
      "type": "function"
    },
    {
      "inputs": [],
      "name": "withdraw",
      "outputs": [],
      "stateMutability": "payable",
      "type": "function"
    },
    {
      "inputs": [],
      "name": "withdrawLink",
      "outputs": [],
      "stateMutability": "nonpayable",
      "type": "function"
    }
  ],
  "bytecode": "0x608060405260016004553480156200001657600080fd5b50338060008073ffffffffffffffffffffffffffffffffffffffff168273ffffffffffffffffffffffffffffffffffffffff16036200008c576040517f08c379a00000000000000000000000000000000000000000000000000000000081526004016200008390620003d3565b60405180910390fd5b81600660006101000a81548173ffffffffffffffffffffffffffffffffffffffff021916908373ffffffffffffffffffffffffffffffffffffffff160217905550600073ffffffffffffffffffffffffffffffffffffffff168173ffffffffffffffffffffffffffffffffffffffff161462000114576200011381620001b960201b60201c565b5b5050506200013c73779877a7b0d9e8603169ddbd7836e478b4624789620002ea60201b60201c565b62000161736090149792daaee9d1d568c9f9a6f6b46aa29efd6200032e60201b60201c565b7f6361393833363663633733313439353762386330313263373266303561656562600981905550600a670de0b6b3a76400006001620001a191906200042e565b620001ad9190620004a8565b600a8190555062000552565b3373ffffffffffffffffffffffffffffffffffffffff168173ffffffffffffffffffffffffffffffffffffffff16036200022a576040517f08c379a0000000000000000000000000000000000000000000000000000000008152600401620002219062000530565b60405180910390fd5b80600760006101000a81548173ffffffffffffffffffffffffffffffffffffffff021916908373ffffffffffffffffffffffffffffffffffffffff1602179055508073ffffffffffffffffffffffffffffffffffffffff16600660009054906101000a900473ffffffffffffffffffffffffffffffffffffffff1673ffffffffffffffffffffffffffffffffffffffff167fed8889f560326eb138920d842192f0eb3dd22b4f139c87a2c57538e05bae127860405160405180910390a350565b80600260006101000a81548173ffffffffffffffffffffffffffffffffffffffff021916908373ffffffffffffffffffffffffffffffffffffffff16021790555050565b80600360006101000a81548173ffffffffffffffffffffffffffffffffffffffff021916908373ffffffffffffffffffffffffffffffffffffffff16021790555050565b600082825260208201905092915050565b7f43616e6e6f7420736574206f776e657220746f207a65726f0000000000000000600082015250565b6000620003bb60188362000372565b9150620003c88262000383565b602082019050919050565b60006020820190508181036000830152620003ee81620003ac565b9050919050565b6000819050919050565b7f4e487b7100000000000000000000000000000000000000000000000000000000600052601160045260246000fd5b60006200043b82620003f5565b91506200044883620003f5565b92508282026200045881620003f5565b91508282048414831517620004725762000471620003ff565b5b5092915050565b7f4e487b7100000000000000000000000000000000000000000000000000000000600052601260045260246000fd5b6000620004b582620003f5565b9150620004c283620003f5565b925082620004d557620004d462000479565b5b828204905092915050565b7f43616e6e6f74207472616e7366657220746f2073656c66000000000000000000600082015250565b60006200051860178362000372565b91506200052582620004e0565b602082019050919050565b600060208201905081810360008301526200054b8162000509565b9050919050565b612ef380620005626000396000f3fe6080604052600436106100f25760003560e01c80635cfc1a511161008a5780638dc654a2116100595780638dc654a21461027157806390b4f12b146102885780639ae80190146102cb578063f2fde38b146102f6576100f2565b80635cfc1a51146101fa57806363bd1d4a1461022557806379ba50971461022f5780638da5cb5b14610246576100f2565b80634357855e116100c65780634357855e146101855780634e71d92d146101ae57806352480855146101c5578063572db9e3146101f0576100f2565b806212100c146100f757806312918050146101345780632c441270146101505780633ccfd60b1461017b575b600080fd5b34801561010357600080fd5b5061011e60048036038101906101199190611e1e565b61031f565b60405161012b9190611e6d565b60405180910390f35b61014e60048036038101906101499190611e88565b610336565b005b34801561015c57600080fd5b50610165610662565b6040516101729190611e6d565b60405180910390f35b6101836106ac565b005b34801561019157600080fd5b506101ac60048036038101906101a79190611f25565b6106fd565b005b3480156101ba57600080fd5b506101c361084e565b005b3480156101d157600080fd5b506101da610a26565b6040516101e79190611f74565b60405180910390f35b6101f8610b8a565b005b34801561020657600080fd5b5061020f610ba5565b60405161021c9190611e6d565b60405180910390f35b61022d610bab565b005b34801561023b57600080fd5b50610244610d62565b005b34801561025257600080fd5b5061025b610ef9565b6040516102689190611fd0565b60405180910390f35b34801561027d57600080fd5b50610286610f23565b005b34801561029457600080fd5b506102af60048036038101906102aa9190612017565b611070565b6040516102c29796959493929190612072565b60405180910390f35b3480156102d757600080fd5b506102e06110dc565b6040516102ed9190611e6d565b60405180910390f35b34801561030257600080fd5b5061031d600480360381019061031891906120e1565b6110e2565b005b600060028361032e919061216c565b905092915050565b605a83111561037a576040517f08c379a000000000000000000000000000000000000000000000000000000000815260040161037190612220565b60405180910390fd5b600b548411156103bf576040517f08c379a00000000000000000000000000000000000000000000000000000000081526004016103b69061228c565b60405180910390fd5b60006103cb858561031f565b905080341461040f576040517f08c379a0000000000000000000000000000000000000000000000000000000008152600401610406906122f8565b60405180910390fd5b6000600c60003373ffffffffffffffffffffffffffffffffffffffff1673ffffffffffffffffffffffffffffffffffffffff168152602001908152602001600020905060008180549050146104f457600081600183805490506104729190612318565b815481106104835761048261234c565b5b906000526020600020906007020190508060060160009054906101000a900460ff16806104b35750428160030154105b6104f2576040517f08c379a00000000000000000000000000000000000000000000000000000000081526004016104e9906123ed565b60405180910390fd5b505b60004290506000620151808761050a919061240d565b82610515919061244f565b90508388600b546105269190612318565b610530919061244f565b600b8190555061053e611cdf565b8481600001818152505088816020018181525050828160400181815250508181606001818152505086816080018181525050858160a001818152505060008160c001901515908115158152505083819080600181540180825580915050600190039060005260206000209060070201600090919091909150600082015181600001556020820151816001015560408201518160020155606082015181600301556080820151816004015560a0820151816005015560c08201518160060160006101000a81548160ff02191690831515021790555050503373ffffffffffffffffffffffffffffffffffffffff167f2f111d8a56aa0ad671b0442ae028827407496656571a697781157db90a03ae1460405160405180910390a2505050505050505050565b6000600c60003373ffffffffffffffffffffffffffffffffffffffff1673ffffffffffffffffffffffffffffffffffffffff16815260200190815260200160002080549050905090565b6106b46110f6565b3373ffffffffffffffffffffffffffffffffffffffff166108fc479081150290604051600060405180830381858888f193505050501580156106fa573d6000803e3d6000fd5b50565b816005600082815260200190815260200160002060009054906101000a900473ffffffffffffffffffffffffffffffffffffffff1673ffffffffffffffffffffffffffffffffffffffff163373ffffffffffffffffffffffffffffffffffffffff161461079f576040517f08c379a0000000000000000000000000000000000000000000000000000000008152600401610796906124f5565b60405180910390fd5b6005600082815260200190815260200160002060006101000a81549073ffffffffffffffffffffffffffffffffffffffff0219169055807f7cc135e0cebb02c3480ae5d74d377283180a2601f8f644edf7987b009316c63a60405160405180910390a281600881905550827fc1d37886c09ba72d413bc1002fa30ad4861108b71bda2d9adaf6a49d367c068e836040516108399190611e6d565b60405180910390a2610849610bab565b505050565b6000600c60003373ffffffffffffffffffffffffffffffffffffffff1673ffffffffffffffffffffffffffffffffffffffff168152602001908152602001600020905060008180549050116108d8576040517f08c379a00000000000000000000000000000000000000000000000000000000081526004016108cf90612587565b60405180910390fd5b600081600183805490506108ec9190612318565b815481106108fd576108fc61234c565b5b9060005260206000209060070201905042816002015411158015610925575080600301544211155b610964576040517f08c379a000000000000000000000000000000000000000000000000000000000815260040161095b906125f3565b60405180910390fd5b8060060160009054906101000a900460ff16156109b6576040517f08c379a00000000000000000000000000000000000000000000000000000000081526004016109ad9061265f565b60405180910390fd5b600d339080600181540180825580915050600190039060005260206000200160009091909190916101000a81548173ffffffffffffffffffffffffffffffffffffffff021916908373ffffffffffffffffffffffffffffffffffffffff160217905550610a21610a26565b505050565b600080610a3d60095430634357855e60e01b611188565b9050610aa16040518060400160405280600381526020017f67657400000000000000000000000000000000000000000000000000000000008152506040518060c0016040528060818152602001612e3d60819139836111b99092919063ffffffff16565b610b206040518060400160405280600481526020017f70617468000000000000000000000000000000000000000000000000000000008152506040518060400160405280601981526020017f6461696c792c70726563697069746174696f6e5f73756d2c3200000000000000815250836111b99092919063ffffffff16565b6000670de0b6b3a76400009050610b776040518060400160405280600581526020017f74696d657300000000000000000000000000000000000000000000000000000081525082846111ec9092919063ffffffff16565b610b8382600a5461121f565b9250505090565b34600b6000828254610b9c919061244f565b92505081905550565b600b5481565b600060085403610d525760005b600d80549050811015610d50576000600d8281548110610bdb57610bda61234c565b5b9060005260206000200160009054906101000a900473ffffffffffffffffffffffffffffffffffffffff1690506000600c60008373ffffffffffffffffffffffffffffffffffffffff1673ffffffffffffffffffffffffffffffffffffffff168152602001908152602001600020905060008160018380549050610c5f9190612318565b81548110610c7057610c6f61234c565b5b9060005260206000209060070201905060018160060160006101000a81548160ff0219169083151502179055508273ffffffffffffffffffffffffffffffffffffffff166108fc82600101549081150290604051600060405180830381858888f19350505050158015610ce7573d6000803e3d6000fd5b508273ffffffffffffffffffffffffffffffffffffffff167fe80d36773458ce7a03850714245b45fa8535fda364366bf7552e38ec63fbf9978260010154604051610d329190611e6d565b60405180910390a25050508080610d489061267f565b915050610bb8565b505b600d6000610d609190611d1e565b565b600760009054906101000a900473ffffffffffffffffffffffffffffffffffffffff1673ffffffffffffffffffffffffffffffffffffffff163373ffffffffffffffffffffffffffffffffffffffff1614610df2576040517f08c379a0000000000000000000000000000000000000000000000000000000008152600401610de990612713565b60405180910390fd5b6000600660009054906101000a900473ffffffffffffffffffffffffffffffffffffffff16905033600660006101000a81548173ffffffffffffffffffffffffffffffffffffffff021916908373ffffffffffffffffffffffffffffffffffffffff1602179055506000600760006101000a81548173ffffffffffffffffffffffffffffffffffffffff021916908373ffffffffffffffffffffffffffffffffffffffff1602179055503373ffffffffffffffffffffffffffffffffffffffff168173ffffffffffffffffffffffffffffffffffffffff167f8be0079c531659141344cd1fd0a4f28419497f9722a3daafe3b4186f6b6457e060405160405180910390a350565b6000600660009054906101000a900473ffffffffffffffffffffffffffffffffffffffff16905090565b610f2b6110f6565b6000610f35611256565b90508073ffffffffffffffffffffffffffffffffffffffff1663a9059cbb338373ffffffffffffffffffffffffffffffffffffffff166370a08231306040518263ffffffff1660e01b8152600401610f8d9190611fd0565b602060405180830381865afa158015610faa573d6000803e3d6000fd5b505050506040513d601f19601f82011682018060405250810190610fce9190612748565b6040518363ffffffff1660e01b8152600401610feb929190612775565b6020604051808303816000875af115801561100a573d6000803e3d6000fd5b505050506040513d601f19601f8201168201806040525081019061102e91906127ca565b61106d576040517f08c379a000000000000000000000000000000000000000000000000000000000815260040161106490612843565b60405180910390fd5b50565b600c602052816000526040600020818154811061108c57600080fd5b9060005260206000209060070201600091509150508060000154908060010154908060020154908060030154908060040154908060050154908060060160009054906101000a900460ff16905087565b60085481565b6110ea6110f6565b6110f381611280565b50565b600660009054906101000a900473ffffffffffffffffffffffffffffffffffffffff1673ffffffffffffffffffffffffffffffffffffffff163373ffffffffffffffffffffffffffffffffffffffff1614611186576040517f08c379a000000000000000000000000000000000000000000000000000000000815260040161117d906128af565b60405180910390fd5b565b611190611d3f565b611198611d3f565b6111af858585846113ae909392919063ffffffff16565b9150509392505050565b6111d082846080015161145e90919063ffffffff16565b6111e781846080015161145e90919063ffffffff16565b505050565b61120382846080015161145e90919063ffffffff16565b61121a81846080015161148390919063ffffffff16565b505050565b600061124e600360009054906101000a900473ffffffffffffffffffffffffffffffffffffffff168484611530565b905092915050565b6000600260009054906101000a900473ffffffffffffffffffffffffffffffffffffffff16905090565b3373ffffffffffffffffffffffffffffffffffffffff168173ffffffffffffffffffffffffffffffffffffffff16036112ee576040517f08c379a00000000000000000000000000000000000000000000000000000000081526004016112e59061291b565b60405180910390fd5b80600760006101000a81548173ffffffffffffffffffffffffffffffffffffffff021916908373ffffffffffffffffffffffffffffffffffffffff1602179055508073ffffffffffffffffffffffffffffffffffffffff16600660009054906101000a900473ffffffffffffffffffffffffffffffffffffffff1673ffffffffffffffffffffffffffffffffffffffff167fed8889f560326eb138920d842192f0eb3dd22b4f139c87a2c57538e05bae127860405160405180910390a350565b6113b6611d3f565b6113c685608001516101006115fc565b508385600001818152505082856020019073ffffffffffffffffffffffffffffffffffffffff16908173ffffffffffffffffffffffffffffffffffffffff16815250508185604001907bffffffffffffffffffffffffffffffffffffffffffffffffffffffff191690817bffffffffffffffffffffffffffffffffffffffffffffffffffffffff191681525050849050949350505050565b61146b8260038351611666565b61147e81836117eb90919063ffffffff16565b505050565b7fffffffffffffffffffffffffffffffffffffffffffffffff00000000000000008112156114ba576114b5828261180d565b61152c565b67ffffffffffffffff8113156114d9576114d48282611884565b61152b565b600081126114f2576114ed82600083611666565b61152a565b611529826001837fffffffffffffffffffffffffffffffffffffffffffffffffffffffffffffffff6115249190612945565b611666565b5b5b5b5050565b6000806004549050600181611545919061244f565b6004819055506000634042994660e01b60008087600001513089604001518760018c6080015160000151604051602401611586989796959493929190612a53565b604051602081830303815290604052907bffffffffffffffffffffffffffffffffffffffffffffffffffffffff19166020820180517bffffffffffffffffffffffffffffffffffffffffffffffffffffffff838183161783525050505090506115f1868386846118d0565b925050509392505050565b611604611dac565b60006020836116139190612ad8565b1461163f576020826116259190612ad8565b60206116319190612318565b8261163c919061244f565b91505b81836020018181525050604051808452600081528281016020016040525082905092915050565b60178167ffffffffffffffff161161169d576116978160058460ff16901b60ff161784611a6590919063ffffffff16565b506117e6565b60ff8167ffffffffffffffff16116116f3576116cc601860058460ff16901b1784611a6590919063ffffffff16565b506116ed8167ffffffffffffffff16600185611a859092919063ffffffff16565b506117e5565b61ffff8167ffffffffffffffff161161174a57611723601960058460ff16901b1784611a6590919063ffffffff16565b506117448167ffffffffffffffff16600285611a859092919063ffffffff16565b506117e4565b63ffffffff8167ffffffffffffffff16116117a35761177c601a60058460ff16901b1784611a6590919063ffffffff16565b5061179d8167ffffffffffffffff16600485611a859092919063ffffffff16565b506117e3565b6117c0601b60058460ff16901b1784611a6590919063ffffffff16565b506117e18167ffffffffffffffff16600885611a859092919063ffffffff16565b505b5b5b5b505050565b6117f3611dac565b61180583846000015151848551611aa7565b905092915050565b61182b60036005600660ff16901b1783611a6590919063ffffffff16565b5061188082827fffffffffffffffffffffffffffffffffffffffffffffffffffffffffffffffff61185c9190612945565b60405160200161186c9190611e6d565b604051602081830303815290604052611b96565b5050565b6118a260026005600660ff16901b1783611a6590919063ffffffff16565b506118cc82826040516020016118b89190611e6d565b604051602081830303815290604052611b96565b5050565b600030846040516020016118e5929190612bc2565b604051602081830303815290604052805190602001209050846005600083815260200190815260200160002060006101000a81548173ffffffffffffffffffffffffffffffffffffffff021916908373ffffffffffffffffffffffffffffffffffffffff160217905550807fb5e6e01e79f91267dc17b4e6314d5d4d03593d2ceee0fbb452b750bd70ea5af960405160405180910390a2600260009054906101000a900473ffffffffffffffffffffffffffffffffffffffff1673ffffffffffffffffffffffffffffffffffffffff16634000aea08685856040518463ffffffff1660e01b81526004016119db93929190612bee565b6020604051808303816000875af11580156119fa573d6000803e3d6000fd5b505050506040513d601f19601f82011682018060405250810190611a1e91906127ca565b611a5d576040517f08c379a0000000000000000000000000000000000000000000000000000000008152600401611a5490612c9e565b60405180910390fd5b949350505050565b611a6d611dac565b611a7d8384600001515184611bbb565b905092915050565b611a8d611dac565b611a9e848560000151518585611c11565b90509392505050565b611aaf611dac565b8251821115611abd57600080fd5b84602001518285611ace919061244f565b1115611b0357611b02856002611af388602001518887611aee919061244f565b611c9f565b611afd919061240d565b611cbb565b5b600080865180518760208301019350808887011115611b225787860182525b60208701925050505b60208410611b695780518252602082611b44919061244f565b9150602081611b53919061244f565b9050602084611b629190612318565b9350611b2b565b60006001856020036101000a03905080198251168184511681811785525050508692505050949350505050565b611ba38260028351611666565b611bb681836117eb90919063ffffffff16565b505050565b611bc3611dac565b83602001518310611be957611be88460028660200151611be3919061240d565b611cbb565b5b83518051602085830101848153818603611c04576001820183525b5050508390509392505050565b611c19611dac565b84602001518483611c2a919061244f565b1115611c5257611c518560028685611c42919061244f565b611c4c919061240d565b611cbb565b5b6000600183610100611c649190612df1565b611c6e9190612318565b90508551838682010185831982511617815281518588011115611c915784870182525b505085915050949350505050565b600081831115611cb157829050611cb5565b8190505b92915050565b600082600001519050611cce83836115fc565b50611cd983826117eb565b50505050565b6040518060e001604052806000815260200160008152602001600081526020016000815260200160008152602001600081526020016000151581525090565b5080546000825590600052602060002090810190611d3c9190611dc6565b50565b6040518060a0016040528060008019168152602001600073ffffffffffffffffffffffffffffffffffffffff16815260200160007bffffffffffffffffffffffffffffffffffffffffffffffffffffffff1916815260200160008152602001611da6611dac565b81525090565b604051806040016040528060608152602001600081525090565b5b80821115611ddf576000816000905550600101611dc7565b5090565b600080fd5b6000819050919050565b611dfb81611de8565b8114611e0657600080fd5b50565b600081359050611e1881611df2565b92915050565b60008060408385031215611e3557611e34611de3565b5b6000611e4385828601611e09565b9250506020611e5485828601611e09565b9150509250929050565b611e6781611de8565b82525050565b6000602082019050611e826000830184611e5e565b92915050565b60008060008060808587031215611ea257611ea1611de3565b5b6000611eb087828801611e09565b9450506020611ec187828801611e09565b9350506040611ed287828801611e09565b9250506060611ee387828801611e09565b91505092959194509250565b6000819050919050565b611f0281611eef565b8114611f0d57600080fd5b50565b600081359050611f1f81611ef9565b92915050565b60008060408385031215611f3c57611f3b611de3565b5b6000611f4a85828601611f10565b9250506020611f5b85828601611e09565b9150509250929050565b611f6e81611eef565b82525050565b6000602082019050611f896000830184611f65565b92915050565b600073ffffffffffffffffffffffffffffffffffffffff82169050919050565b6000611fba82611f8f565b9050919050565b611fca81611faf565b82525050565b6000602082019050611fe56000830184611fc1565b92915050565b611ff481611faf565b8114611fff57600080fd5b50565b60008135905061201181611feb565b92915050565b6000806040838503121561202e5761202d611de3565b5b600061203c85828601612002565b925050602061204d85828601611e09565b9150509250929050565b60008115159050919050565b61206c81612057565b82525050565b600060e082019050612087600083018a611e5e565b6120946020830189611e5e565b6120a16040830188611e5e565b6120ae6060830187611e5e565b6120bb6080830186611e5e565b6120c860a0830185611e5e565b6120d560c0830184612063565b98975050505050505050565b6000602082840312156120f7576120f6611de3565b5b600061210584828501612002565b91505092915050565b7f4e487b7100000000000000000000000000000000000000000000000000000000600052601260045260246000fd5b7f4e487b7100000000000000000000000000000000000000000000000000000000600052601160045260246000fd5b600061217782611de8565b915061218283611de8565b9250826121925761219161210e565b5b828204905092915050565b600082825260208201905092915050565b7f4475726174696f6e2065786365656473206d6178696d756d206f662033206d6f60008201527f6e74687300000000000000000000000000000000000000000000000000000000602082015250565b600061220a60248361219d565b9150612215826121ae565b604082019050919050565b60006020820190508181036000830152612239816121fd565b9050919050565b7f436f76657220616d6f756e742065786365656473206361706163697479210000600082015250565b6000612276601e8361219d565b915061228182612240565b602082019050919050565b600060208201905081810360008301526122a581612269565b9050919050565b7f496e636f7272656374207072656d69756d20616d6f756e742073656e74000000600082015250565b60006122e2601d8361219d565b91506122ed826122ac565b602082019050919050565b60006020820190508181036000830152612311816122d5565b9050919050565b600061232382611de8565b915061232e83611de8565b92508282039050818111156123465761234561213d565b5b92915050565b7f4e487b7100000000000000000000000000000000000000000000000000000000600052603260045260246000fd5b7f596f75206861766520616c72656164792070757263686173656420746869732060008201527f706f6c6963792e00000000000000000000000000000000000000000000000000602082015250565b60006123d760278361219d565b91506123e28261237b565b604082019050919050565b60006020820190508181036000830152612406816123ca565b9050919050565b600061241882611de8565b915061242383611de8565b925082820261243181611de8565b915082820484148315176124485761244761213d565b5b5092915050565b600061245a82611de8565b915061246583611de8565b925082820190508082111561247d5761247c61213d565b5b92915050565b7f536f75726365206d75737420626520746865206f7261636c65206f662074686560008201527f2072657175657374000000000000000000000000000000000000000000000000602082015250565b60006124df60288361219d565b91506124ea82612483565b604082019050919050565b6000602082019050818103600083015261250e816124d2565b9050919050565b7f596f752068617665206e6f7420707572636861736564207468697320706f6c6960008201527f6379000000000000000000000000000000000000000000000000000000000000602082015250565b600061257160228361219d565b915061257c82612515565b604082019050919050565b600060208201905081810360008301526125a081612564565b9050919050565b7f506f6c696379206e6f7420616374697665000000000000000000000000000000600082015250565b60006125dd60118361219d565b91506125e8826125a7565b602082019050919050565b6000602082019050818103600083015261260c816125d0565b9050919050565b7f436c61696d20616c72656164792070726f636573736564000000000000000000600082015250565b600061264960178361219d565b915061265482612613565b602082019050919050565b600060208201905081810360008301526126788161263c565b9050919050565b600061268a82611de8565b91507fffffffffffffffffffffffffffffffffffffffffffffffffffffffffffffffff82036126bc576126bb61213d565b5b600182019050919050565b7f4d7573742062652070726f706f736564206f776e657200000000000000000000600082015250565b60006126fd60168361219d565b9150612708826126c7565b602082019050919050565b6000602082019050818103600083015261272c816126f0565b9050919050565b60008151905061274281611df2565b92915050565b60006020828403121561275e5761275d611de3565b5b600061276c84828501612733565b91505092915050565b600060408201905061278a6000830185611fc1565b6127976020830184611e5e565b9392505050565b6127a781612057565b81146127b257600080fd5b50565b6000815190506127c48161279e565b92915050565b6000602082840312156127e0576127df611de3565b5b60006127ee848285016127b5565b91505092915050565b7f556e61626c6520746f207472616e736665720000000000000000000000000000600082015250565b600061282d60128361219d565b9150612838826127f7565b602082019050919050565b6000602082019050818103600083015261285c81612820565b9050919050565b7f4f6e6c792063616c6c61626c65206279206f776e657200000000000000000000600082015250565b600061289960168361219d565b91506128a482612863565b602082019050919050565b600060208201905081810360008301526128c88161288c565b9050919050565b7f43616e6e6f74207472616e7366657220746f2073656c66000000000000000000600082015250565b600061290560178361219d565b9150612910826128cf565b602082019050919050565b60006020820190508181036000830152612934816128f8565b9050919050565b6000819050919050565b60006129508261293b565b915061295b8361293b565b92508282039050818112600084121682821360008512151617156129825761298161213d565b5b92915050565b60007fffffffff0000000000000000000000000000000000000000000000000000000082169050919050565b6129bd81612988565b82525050565b600081519050919050565b600082825260208201905092915050565b60005b838110156129fd5780820151818401526020810190506129e2565b60008484015250505050565b6000601f19601f8301169050919050565b6000612a25826129c3565b612a2f81856129ce565b9350612a3f8185602086016129df565b612a4881612a09565b840191505092915050565b600061010082019050612a69600083018b611fc1565b612a76602083018a611e5e565b612a836040830189611f65565b612a906060830188611fc1565b612a9d60808301876129b4565b612aaa60a0830186611e5e565b612ab760c0830185611e5e565b81810360e0830152612ac98184612a1a565b90509998505050505050505050565b6000612ae382611de8565b9150612aee83611de8565b925082612afe57612afd61210e565b5b828206905092915050565b6000819050919050565b6000612b2e612b29612b2484611f8f565b612b09565b611f8f565b9050919050565b6000612b4082612b13565b9050919050565b6000612b5282612b35565b9050919050565b60008160601b9050919050565b6000612b7182612b59565b9050919050565b6000612b8382612b66565b9050919050565b612b9b612b9682612b47565b612b78565b82525050565b6000819050919050565b612bbc612bb782611de8565b612ba1565b82525050565b6000612bce8285612b8a565b601482019150612bde8284612bab565b6020820191508190509392505050565b6000606082019050612c036000830186611fc1565b612c106020830185611e5e565b8181036040830152612c228184612a1a565b9050949350505050565b7f756e61626c6520746f207472616e73666572416e6443616c6c20746f206f726160008201527f636c650000000000000000000000000000000000000000000000000000000000602082015250565b6000612c8860238361219d565b9150612c9382612c2c565b604082019050919050565b60006020820190508181036000830152612cb781612c7b565b9050919050565b60008160011c9050919050565b6000808291508390505b6001851115612d1557808604811115612cf157612cf061213d565b5b6001851615612d005780820291505b8081029050612d0e85612cbe565b9450612cd5565b94509492505050565b600082612d2e5760019050612dea565b81612d3c5760009050612dea565b8160018114612d525760028114612d5c57612d8b565b6001915050612dea565b60ff841115612d6e57612d6d61213d565b5b8360020a915084821115612d8557612d8461213d565b5b50612dea565b5060208310610133831016604e8410600b8410161715612dc05782820a905083811115612dbb57612dba61213d565b5b612dea565b612dcd8484846001612ccb565b92509050818404811115612de457612de361213d565b5b81810290505b9392505050565b6000612dfc82611de8565b9150612e0783611de8565b9250612e347fffffffffffffffffffffffffffffffffffffffffffffffffffffffffffffffff8484612d1e565b90509291505056fe68747470733a2f2f6170692e6f70656e2d6d6574656f2e636f6d2f76312f666f7265636173743f6c617469747564653d31266c6f6e6769747564653d313033266461696c793d70726563697069746174696f6e5f73756d2674696d657a6f6e653d6175746f26706173745f646179733d3726666f7265636173745f646179733d31a2646970667358221220c630af12cd5dceb8123a7d468bb609d6d1d59ab5d1c3a13458ef1aa1d246851e64736f6c63430008130033",
  "linkReferences": {},
  "deployedLinkReferences": {}
}