{
  "_format": "hh-sol-artifact-1",
  "contractName": "WeatherInsurance",
  "sourceName": "contracts/WeatherInsuranceContract.sol",
  "abi": [
    {
      "inputs": [],
      "stateMutability": "nonpayable",
      "type": "constructor"
    },
    {
      "anonymous": false,
      "inputs": [
        {
          "indexed": true,
          "internalType": "bytes32",
          "name": "id",
          "type": "bytes32"
        }
      ],
      "name": "ChainlinkCancelled",
      "type": "event"
    },
    {
      "anonymous": false,
      "inputs": [
        {
          "indexed": true,
          "internalType": "bytes32",
          "name": "id",
          "type": "bytes32"
        }
      ],
      "name": "ChainlinkFulfilled",
      "type": "event"
    },
    {
      "anonymous": false,
      "inputs": [
        {
          "indexed": true,
          "internalType": "bytes32",
          "name": "id",
          "type": "bytes32"
        }
      ],
      "name": "ChainlinkRequested",
      "type": "event"
    },
    {
      "anonymous": false,
      "inputs": [
        {
          "indexed": true,
          "internalType": "address",
          "name": "insuredAddress",
          "type": "address"
        },
        {
          "indexed": false,
          "internalType": "uint256",
          "name": "coverAmount",
          "type": "uint256"
        }
      ],
      "name": "ClaimProcessed",
      "type": "event"
    },
    {
      "anonymous": false,
      "inputs": [
        {
          "indexed": true,
          "internalType": "address",
          "name": "from",
          "type": "address"
        },
        {
          "indexed": true,
          "internalType": "address",
          "name": "to",
          "type": "address"
        }
      ],
      "name": "OwnershipTransferRequested",
      "type": "event"
    },
    {
      "anonymous": false,
      "inputs": [
        {
          "indexed": true,
          "internalType": "address",
          "name": "from",
          "type": "address"
        },
        {
          "indexed": true,
          "internalType": "address",
          "name": "to",
          "type": "address"
        }
      ],
      "name": "OwnershipTransferred",
      "type": "event"
    },
    {
      "anonymous": false,
      "inputs": [
        {
          "indexed": true,
          "internalType": "address",
          "name": "insuredAddress",
          "type": "address"
        }
      ],
      "name": "PolicyCreated",
      "type": "event"
    },
    {
      "anonymous": false,
      "inputs": [
        {
          "indexed": true,
          "internalType": "bytes32",
          "name": "requestId",
          "type": "bytes32"
        },
        {
          "indexed": false,
          "internalType": "uint256",
          "name": "precipitate",
          "type": "uint256"
        }
      ],
      "name": "RequestPrecipitate",
      "type": "event"
    },
    {
      "inputs": [],
      "name": "acceptOwnership",
      "outputs": [],
      "stateMutability": "nonpayable",
      "type": "function"
    },
    {
      "inputs": [
        {
          "internalType": "uint256",
          "name": "_durationDays",
          "type": "uint256"
        },
        {
          "internalType": "uint256",
          "name": "_coverAmount",
          "type": "uint256"
        }
      ],
      "name": "calculatePremium",
      "outputs": [
        {
          "internalType": "uint256",
          "name": "",
          "type": "uint256"
        }
      ],
      "stateMutability": "pure",
      "type": "function"
    },
    {
      "inputs": [],
      "name": "capacity",
      "outputs": [
        {
          "internalType": "uint256",
          "name": "",
          "type": "uint256"
        }
      ],
      "stateMutability": "view",
      "type": "function"
    },
    {
      "inputs": [],
      "name": "claim",
      "outputs": [],
      "stateMutability": "payable",
      "type": "function"
    },
    {
      "inputs": [
        {
          "internalType": "bytes32",
          "name": "_requestId",
          "type": "bytes32"
        },
        {
          "internalType": "uint256",
          "name": "_precipitate",
          "type": "uint256"
        }
      ],
      "name": "fulfill",
      "outputs": [],
      "stateMutability": "nonpayable",
      "type": "function"
    },
    {
      "inputs": [],
      "name": "fundPolicy",
      "outputs": [],
      "stateMutability": "payable",
      "type": "function"
    },
    {
      "inputs": [
        {
          "internalType": "address",
          "name": "userAddress",
          "type": "address"
        }
      ],
      "name": "numPolicies",
      "outputs": [
        {
          "internalType": "uint256",
          "name": "",
          "type": "uint256"
        }
      ],
      "stateMutability": "view",
      "type": "function"
    },
    {
      "inputs": [],
      "name": "owner",
      "outputs": [
        {
          "internalType": "address",
          "name": "",
          "type": "address"
        }
      ],
      "stateMutability": "view",
      "type": "function"
    },
    {
      "inputs": [
        {
          "internalType": "address",
          "name": "",
          "type": "address"
        },
        {
          "internalType": "uint256",
          "name": "",
          "type": "uint256"
        }
      ],
      "name": "policies",
      "outputs": [
        {
          "internalType": "uint256",
          "name": "premium",
          "type": "uint256"
        },
        {
          "internalType": "uint256",
          "name": "coverAmount",
          "type": "uint256"
        },
        {
          "internalType": "uint256",
          "name": "startDate",
          "type": "uint256"
        },
        {
          "internalType": "uint256",
          "name": "endDate",
          "type": "uint256"
        },
        {
          "internalType": "uint256",
          "name": "latitude",
          "type": "uint256"
        },
        {
          "internalType": "uint256",
          "name": "longitude",
          "type": "uint256"
        },
        {
          "internalType": "bool",
          "name": "isClaimed",
          "type": "bool"
        }
      ],
      "stateMutability": "view",
      "type": "function"
    },
    {
      "inputs": [],
      "name": "precipitate",
      "outputs": [
        {
          "internalType": "uint256",
          "name": "",
          "type": "uint256"
        }
      ],
      "stateMutability": "view",
      "type": "function"
    },
    {
      "inputs": [
        {
          "internalType": "uint256",
          "name": "_coverAmount",
          "type": "uint256"
        },
        {
          "internalType": "uint256",
          "name": "_durationDays",
          "type": "uint256"
        },
        {
          "internalType": "uint256",
          "name": "_lat",
          "type": "uint256"
        },
        {
          "internalType": "uint256",
          "name": "_lon",
          "type": "uint256"
        }
      ],
      "name": "purchaseInsurance",
      "outputs": [],
      "stateMutability": "payable",
      "type": "function"
    },
    {
      "inputs": [],
      "name": "requestPrecipitateData",
      "outputs": [
        {
          "internalType": "bytes32",
          "name": "requestId",
          "type": "bytes32"
        }
      ],
      "stateMutability": "nonpayable",
      "type": "function"
    },
    {
      "inputs": [
        {
          "internalType": "address",
          "name": "to",
          "type": "address"
        }
      ],
      "name": "transferOwnership",
      "outputs": [],
      "stateMutability": "nonpayable",
      "type": "function"
    },
    {
      "inputs": [],
      "name": "withdraw",
      "outputs": [],
      "stateMutability": "payable",
      "type": "function"
    },
    {
      "inputs": [],
      "name": "withdrawLink",
      "outputs": [],
      "stateMutability": "nonpayable",
      "type": "function"
    }
  ],
  "bytecode": "0x608060405260016004553480156200001657600080fd5b50338060008073ffffffffffffffffffffffffffffffffffffffff168273ffffffffffffffffffffffffffffffffffffffff16036200008c576040517f08c379a00000000000000000000000000000000000000000000000000000000081526004016200008390620003e3565b60405180910390fd5b81600660006101000a81548173ffffffffffffffffffffffffffffffffffffffff021916908373ffffffffffffffffffffffffffffffffffffffff160217905550600073ffffffffffffffffffffffffffffffffffffffff168173ffffffffffffffffffffffffffffffffffffffff161462000114576200011381620001c960201b60201c565b5b5050506200013c73779877a7b0d9e8603169ddbd7836e478b4624789620002fa60201b60201c565b62000161736090149792daaee9d1d568c9f9a6f6b46aa29efd6200033e60201b60201c565b7f6361393833363663633733313439353762386330313263373266303561656562600981905550600a670de0b6b3a76400006001620001a191906200043e565b620001ad9190620004b8565b600a8190555068056bc75e2d63100000600b8190555062000562565b3373ffffffffffffffffffffffffffffffffffffffff168173ffffffffffffffffffffffffffffffffffffffff16036200023a576040517f08c379a0000000000000000000000000000000000000000000000000000000008152600401620002319062000540565b60405180910390fd5b80600760006101000a81548173ffffffffffffffffffffffffffffffffffffffff021916908373ffffffffffffffffffffffffffffffffffffffff1602179055508073ffffffffffffffffffffffffffffffffffffffff16600660009054906101000a900473ffffffffffffffffffffffffffffffffffffffff1673ffffffffffffffffffffffffffffffffffffffff167fed8889f560326eb138920d842192f0eb3dd22b4f139c87a2c57538e05bae127860405160405180910390a350565b80600260006101000a81548173ffffffffffffffffffffffffffffffffffffffff021916908373ffffffffffffffffffffffffffffffffffffffff16021790555050565b80600360006101000a81548173ffffffffffffffffffffffffffffffffffffffff021916908373ffffffffffffffffffffffffffffffffffffffff16021790555050565b600082825260208201905092915050565b7f43616e6e6f7420736574206f776e657220746f207a65726f0000000000000000600082015250565b6000620003cb60188362000382565b9150620003d88262000393565b602082019050919050565b60006020820190508181036000830152620003fe81620003bc565b9050919050565b6000819050919050565b7f4e487b7100000000000000000000000000000000000000000000000000000000600052601160045260246000fd5b60006200044b8262000405565b9150620004588362000405565b9250828202620004688162000405565b915082820484148315176200048257620004816200040f565b5b5092915050565b7f4e487b7100000000000000000000000000000000000000000000000000000000600052601260045260246000fd5b6000620004c58262000405565b9150620004d28362000405565b925082620004e557620004e462000489565b5b828204905092915050565b7f43616e6e6f74207472616e7366657220746f2073656c66000000000000000000600082015250565b60006200052860178362000382565b91506200053582620004f0565b602082019050919050565b600060208201905081810360008301526200055b8162000519565b9050919050565b612d4980620005726000396000f3fe6080604052600436106100e75760003560e01c80635cfc1a511161008a57806390b4f12b1161005957806390b4f12b1461023b5780639ae801901461027e578063a28b8430146102a9578063f2fde38b146102e6576100e7565b80635cfc1a51146101b757806379ba5097146101e25780638da5cb5b146101f95780638dc654a214610224576100e7565b80634357855e116100c65780634357855e1461014f5780634e71d92d146101785780635248085514610182578063572db9e3146101ad576100e7565b806212100c146100ec57806312918050146101295780633ccfd60b14610145575b600080fd5b3480156100f857600080fd5b50610113600480360381019061010e9190611c81565b61030f565b6040516101209190611cd0565b60405180910390f35b610143600480360381019061013e9190611ceb565b61031a565b005b61014d61062d565b005b34801561015b57600080fd5b5061017660048036038101906101719190611d88565b61067e565b005b6101806107c7565b005b34801561018e57600080fd5b50610197610a32565b6040516101a49190611dd7565b60405180910390f35b6101b5610b96565b005b3480156101c357600080fd5b506101cc610bb1565b6040516101d99190611cd0565b60405180910390f35b3480156101ee57600080fd5b506101f7610bb7565b005b34801561020557600080fd5b5061020e610d4e565b60405161021b9190611e33565b60405180910390f35b34801561023057600080fd5b50610239610d78565b005b34801561024757600080fd5b50610262600480360381019061025d9190611e7a565b610ec5565b6040516102759796959493929190611ed5565b60405180910390f35b34801561028a57600080fd5b50610293610f31565b6040516102a09190611cd0565b60405180910390f35b3480156102b557600080fd5b506102d060048036038101906102cb9190611f44565b610f37565b6040516102dd9190611cd0565b60405180910390f35b3480156102f257600080fd5b5061030d60048036038101906103089190611f44565b610f83565b005b600081905092915050565b605a83111561035e576040517f08c379a000000000000000000000000000000000000000000000000000000000815260040161035590611ff4565b60405180910390fd5b600b548411156103a3576040517f08c379a000000000000000000000000000000000000000000000000000000000815260040161039a90612060565b60405180910390fd5b60006103af848661030f565b90508034146103f3576040517f08c379a00000000000000000000000000000000000000000000000000000000081526004016103ea906120cc565b60405180910390fd5b6000600c60003373ffffffffffffffffffffffffffffffffffffffff1673ffffffffffffffffffffffffffffffffffffffff168152602001908152602001600020905060008180549050146104bf5760008160018380549050610456919061211b565b815481106104675761046661214f565b5b90600052602060002090600702019050428160030154116104bd576040517f08c379a00000000000000000000000000000000000000000000000000000000081526004016104b4906121f0565b60405180910390fd5b505b6000429050600062015180876104d59190612210565b826104e09190612252565b90508388600b546104f1919061211b565b6104fb9190612252565b600b81905550610509611b80565b8481600001818152505088816020018181525050828160400181815250508181606001818152505086816080018181525050858160a001818152505060008160c001901515908115158152505083819080600181540180825580915050600190039060005260206000209060070201600090919091909150600082015181600001556020820151816001015560408201518160020155606082015181600301556080820151816004015560a0820151816005015560c08201518160060160006101000a81548160ff02191690831515021790555050503373ffffffffffffffffffffffffffffffffffffffff167f2f111d8a56aa0ad671b0442ae028827407496656571a697781157db90a03ae1460405160405180910390a2505050505050505050565b610635610f97565b3373ffffffffffffffffffffffffffffffffffffffff166108fc479081150290604051600060405180830381858888f1935050505015801561067b573d6000803e3d6000fd5b50565b816005600082815260200190815260200160002060009054906101000a900473ffffffffffffffffffffffffffffffffffffffff1673ffffffffffffffffffffffffffffffffffffffff163373ffffffffffffffffffffffffffffffffffffffff1614610720576040517f08c379a0000000000000000000000000000000000000000000000000000000008152600401610717906122f8565b60405180910390fd5b6005600082815260200190815260200160002060006101000a81549073ffffffffffffffffffffffffffffffffffffffff0219169055807f7cc135e0cebb02c3480ae5d74d377283180a2601f8f644edf7987b009316c63a60405160405180910390a281600881905550827fc1d37886c09ba72d413bc1002fa30ad4861108b71bda2d9adaf6a49d367c068e836040516107ba9190611cd0565b60405180910390a2505050565b6000600c60003373ffffffffffffffffffffffffffffffffffffffff1673ffffffffffffffffffffffffffffffffffffffff16815260200190815260200160002090506000818054905011610851576040517f08c379a00000000000000000000000000000000000000000000000000000000081526004016108489061238a565b60405180910390fd5b60008160018380549050610865919061211b565b815481106108765761087561214f565b5b906000526020600020906007020190504281600201541115801561089e575080600301544211155b6108dd576040517f08c379a00000000000000000000000000000000000000000000000000000000081526004016108d4906123f6565b60405180910390fd5b8060060160009054906101000a900460ff161561092f576040517f08c379a000000000000000000000000000000000000000000000000000000000815260040161092690612462565b60405180910390fd5b600060085414610974576040517f08c379a000000000000000000000000000000000000000000000000000000000815260040161096b906124ce565b60405180910390fd5b60018160060160006101000a81548160ff0219169083151502179055503373ffffffffffffffffffffffffffffffffffffffff166108fc82600101549081150290604051600060405180830381858888f193505050501580156109db573d6000803e3d6000fd5b503373ffffffffffffffffffffffffffffffffffffffff167fe80d36773458ce7a03850714245b45fa8535fda364366bf7552e38ec63fbf9978260010154604051610a269190611cd0565b60405180910390a25050565b600080610a4960095430634357855e60e01b611029565b9050610aad6040518060400160405280600381526020017f67657400000000000000000000000000000000000000000000000000000000008152506040518060c0016040528060818152602001612c93608191398361105a9092919063ffffffff16565b610b2c6040518060400160405280600481526020017f70617468000000000000000000000000000000000000000000000000000000008152506040518060400160405280601981526020017f6461696c792c70726563697069746174696f6e5f73756d2c32000000000000008152508361105a9092919063ffffffff16565b6000670de0b6b3a76400009050610b836040518060400160405280600581526020017f74696d6573000000000000000000000000000000000000000000000000000000815250828461108d9092919063ffffffff16565b610b8f82600a546110c0565b9250505090565b34600b6000828254610ba89190612252565b92505081905550565b600b5481565b600760009054906101000a900473ffffffffffffffffffffffffffffffffffffffff1673ffffffffffffffffffffffffffffffffffffffff163373ffffffffffffffffffffffffffffffffffffffff1614610c47576040517f08c379a0000000000000000000000000000000000000000000000000000000008152600401610c3e9061253a565b60405180910390fd5b6000600660009054906101000a900473ffffffffffffffffffffffffffffffffffffffff16905033600660006101000a81548173ffffffffffffffffffffffffffffffffffffffff021916908373ffffffffffffffffffffffffffffffffffffffff1602179055506000600760006101000a81548173ffffffffffffffffffffffffffffffffffffffff021916908373ffffffffffffffffffffffffffffffffffffffff1602179055503373ffffffffffffffffffffffffffffffffffffffff168173ffffffffffffffffffffffffffffffffffffffff167f8be0079c531659141344cd1fd0a4f28419497f9722a3daafe3b4186f6b6457e060405160405180910390a350565b6000600660009054906101000a900473ffffffffffffffffffffffffffffffffffffffff16905090565b610d80610f97565b6000610d8a6110f7565b90508073ffffffffffffffffffffffffffffffffffffffff1663a9059cbb338373ffffffffffffffffffffffffffffffffffffffff166370a08231306040518263ffffffff1660e01b8152600401610de29190611e33565b602060405180830381865afa158015610dff573d6000803e3d6000fd5b505050506040513d601f19601f82011682018060405250810190610e23919061256f565b6040518363ffffffff1660e01b8152600401610e4092919061259c565b6020604051808303816000875af1158015610e5f573d6000803e3d6000fd5b505050506040513d601f19601f82011682018060405250810190610e8391906125f1565b610ec2576040517f08c379a0000000000000000000000000000000000000000000000000000000008152600401610eb99061266a565b60405180910390fd5b50565b600c6020528160005260406000208181548110610ee157600080fd5b9060005260206000209060070201600091509150508060000154908060010154908060020154908060030154908060040154908060050154908060060160009054906101000a900460ff16905087565b60085481565b6000600c60008373ffffffffffffffffffffffffffffffffffffffff1673ffffffffffffffffffffffffffffffffffffffff168152602001908152602001600020805490509050919050565b610f8b610f97565b610f9481611121565b50565b600660009054906101000a900473ffffffffffffffffffffffffffffffffffffffff1673ffffffffffffffffffffffffffffffffffffffff163373ffffffffffffffffffffffffffffffffffffffff1614611027576040517f08c379a000000000000000000000000000000000000000000000000000000000815260040161101e906126d6565b60405180910390fd5b565b611031611bbf565b611039611bbf565b6110508585858461124f909392919063ffffffff16565b9150509392505050565b6110718284608001516112ff90919063ffffffff16565b6110888184608001516112ff90919063ffffffff16565b505050565b6110a48284608001516112ff90919063ffffffff16565b6110bb81846080015161132490919063ffffffff16565b505050565b60006110ef600360009054906101000a900473ffffffffffffffffffffffffffffffffffffffff1684846113d1565b905092915050565b6000600260009054906101000a900473ffffffffffffffffffffffffffffffffffffffff16905090565b3373ffffffffffffffffffffffffffffffffffffffff168173ffffffffffffffffffffffffffffffffffffffff160361118f576040517f08c379a000000000000000000000000000000000000000000000000000000000815260040161118690612742565b60405180910390fd5b80600760006101000a81548173ffffffffffffffffffffffffffffffffffffffff021916908373ffffffffffffffffffffffffffffffffffffffff1602179055508073ffffffffffffffffffffffffffffffffffffffff16600660009054906101000a900473ffffffffffffffffffffffffffffffffffffffff1673ffffffffffffffffffffffffffffffffffffffff167fed8889f560326eb138920d842192f0eb3dd22b4f139c87a2c57538e05bae127860405160405180910390a350565b611257611bbf565b611267856080015161010061149d565b508385600001818152505082856020019073ffffffffffffffffffffffffffffffffffffffff16908173ffffffffffffffffffffffffffffffffffffffff16815250508185604001907bffffffffffffffffffffffffffffffffffffffffffffffffffffffff191690817bffffffffffffffffffffffffffffffffffffffffffffffffffffffff191681525050849050949350505050565b61130c8260038351611507565b61131f818361168c90919063ffffffff16565b505050565b7fffffffffffffffffffffffffffffffffffffffffffffffff000000000000000081121561135b5761135682826116ae565b6113cd565b67ffffffffffffffff81131561137a576113758282611725565b6113cc565b600081126113935761138e82600083611507565b6113cb565b6113ca826001837fffffffffffffffffffffffffffffffffffffffffffffffffffffffffffffffff6113c5919061276c565b611507565b5b5b5b5050565b60008060045490506001816113e69190612252565b6004819055506000634042994660e01b60008087600001513089604001518760018c608001516000015160405160240161142798979695949392919061287a565b604051602081830303815290604052907bffffffffffffffffffffffffffffffffffffffffffffffffffffffff19166020820180517bffffffffffffffffffffffffffffffffffffffffffffffffffffffff8381831617835250505050905061149286838684611771565b925050509392505050565b6114a5611c2c565b60006020836114b4919061292e565b146114e0576020826114c6919061292e565b60206114d2919061211b565b826114dd9190612252565b91505b81836020018181525050604051808452600081528281016020016040525082905092915050565b60178167ffffffffffffffff161161153e576115388160058460ff16901b60ff16178461190690919063ffffffff16565b50611687565b60ff8167ffffffffffffffff16116115945761156d601860058460ff16901b178461190690919063ffffffff16565b5061158e8167ffffffffffffffff166001856119269092919063ffffffff16565b50611686565b61ffff8167ffffffffffffffff16116115eb576115c4601960058460ff16901b178461190690919063ffffffff16565b506115e58167ffffffffffffffff166002856119269092919063ffffffff16565b50611685565b63ffffffff8167ffffffffffffffff16116116445761161d601a60058460ff16901b178461190690919063ffffffff16565b5061163e8167ffffffffffffffff166004856119269092919063ffffffff16565b50611684565b611661601b60058460ff16901b178461190690919063ffffffff16565b506116828167ffffffffffffffff166008856119269092919063ffffffff16565b505b5b5b5b505050565b611694611c2c565b6116a683846000015151848551611948565b905092915050565b6116cc60036005600660ff16901b178361190690919063ffffffff16565b5061172182827fffffffffffffffffffffffffffffffffffffffffffffffffffffffffffffffff6116fd919061276c565b60405160200161170d9190611cd0565b604051602081830303815290604052611a37565b5050565b61174360026005600660ff16901b178361190690919063ffffffff16565b5061176d82826040516020016117599190611cd0565b604051602081830303815290604052611a37565b5050565b60003084604051602001611786929190612a18565b604051602081830303815290604052805190602001209050846005600083815260200190815260200160002060006101000a81548173ffffffffffffffffffffffffffffffffffffffff021916908373ffffffffffffffffffffffffffffffffffffffff160217905550807fb5e6e01e79f91267dc17b4e6314d5d4d03593d2ceee0fbb452b750bd70ea5af960405160405180910390a2600260009054906101000a900473ffffffffffffffffffffffffffffffffffffffff1673ffffffffffffffffffffffffffffffffffffffff16634000aea08685856040518463ffffffff1660e01b815260040161187c93929190612a44565b6020604051808303816000875af115801561189b573d6000803e3d6000fd5b505050506040513d601f19601f820116820180604052508101906118bf91906125f1565b6118fe576040517f08c379a00000000000000000000000000000000000000000000000000000000081526004016118f590612af4565b60405180910390fd5b949350505050565b61190e611c2c565b61191e8384600001515184611a5c565b905092915050565b61192e611c2c565b61193f848560000151518585611ab2565b90509392505050565b611950611c2c565b825182111561195e57600080fd5b8460200151828561196f9190612252565b11156119a4576119a38560026119948860200151888761198f9190612252565b611b40565b61199e9190612210565b611b5c565b5b6000808651805187602083010193508088870111156119c35787860182525b60208701925050505b60208410611a0a57805182526020826119e59190612252565b91506020816119f49190612252565b9050602084611a03919061211b565b93506119cc565b60006001856020036101000a03905080198251168184511681811785525050508692505050949350505050565b611a448260028351611507565b611a57818361168c90919063ffffffff16565b505050565b611a64611c2c565b83602001518310611a8a57611a898460028660200151611a849190612210565b611b5c565b5b83518051602085830101848153818603611aa5576001820183525b5050508390509392505050565b611aba611c2c565b84602001518483611acb9190612252565b1115611af357611af28560028685611ae39190612252565b611aed9190612210565b611b5c565b5b6000600183610100611b059190612c47565b611b0f919061211b565b90508551838682010185831982511617815281518588011115611b325784870182525b505085915050949350505050565b600081831115611b5257829050611b56565b8190505b92915050565b600082600001519050611b6f838361149d565b50611b7a838261168c565b50505050565b6040518060e001604052806000815260200160008152602001600081526020016000815260200160008152602001600081526020016000151581525090565b6040518060a0016040528060008019168152602001600073ffffffffffffffffffffffffffffffffffffffff16815260200160007bffffffffffffffffffffffffffffffffffffffffffffffffffffffff1916815260200160008152602001611c26611c2c565b81525090565b604051806040016040528060608152602001600081525090565b600080fd5b6000819050919050565b611c5e81611c4b565b8114611c6957600080fd5b50565b600081359050611c7b81611c55565b92915050565b60008060408385031215611c9857611c97611c46565b5b6000611ca685828601611c6c565b9250506020611cb785828601611c6c565b9150509250929050565b611cca81611c4b565b82525050565b6000602082019050611ce56000830184611cc1565b92915050565b60008060008060808587031215611d0557611d04611c46565b5b6000611d1387828801611c6c565b9450506020611d2487828801611c6c565b9350506040611d3587828801611c6c565b9250506060611d4687828801611c6c565b91505092959194509250565b6000819050919050565b611d6581611d52565b8114611d7057600080fd5b50565b600081359050611d8281611d5c565b92915050565b60008060408385031215611d9f57611d9e611c46565b5b6000611dad85828601611d73565b9250506020611dbe85828601611c6c565b9150509250929050565b611dd181611d52565b82525050565b6000602082019050611dec6000830184611dc8565b92915050565b600073ffffffffffffffffffffffffffffffffffffffff82169050919050565b6000611e1d82611df2565b9050919050565b611e2d81611e12565b82525050565b6000602082019050611e486000830184611e24565b92915050565b611e5781611e12565b8114611e6257600080fd5b50565b600081359050611e7481611e4e565b92915050565b60008060408385031215611e9157611e90611c46565b5b6000611e9f85828601611e65565b9250506020611eb085828601611c6c565b9150509250929050565b60008115159050919050565b611ecf81611eba565b82525050565b600060e082019050611eea600083018a611cc1565b611ef76020830189611cc1565b611f046040830188611cc1565b611f116060830187611cc1565b611f1e6080830186611cc1565b611f2b60a0830185611cc1565b611f3860c0830184611ec6565b98975050505050505050565b600060208284031215611f5a57611f59611c46565b5b6000611f6884828501611e65565b91505092915050565b600082825260208201905092915050565b7f4475726174696f6e2065786365656473206d6178696d756d206f662033206d6f60008201527f6e74687300000000000000000000000000000000000000000000000000000000602082015250565b6000611fde602483611f71565b9150611fe982611f82565b604082019050919050565b6000602082019050818103600083015261200d81611fd1565b9050919050565b7f436f76657220616d6f756e742065786365656473206361706163697479210000600082015250565b600061204a601e83611f71565b915061205582612014565b602082019050919050565b600060208201905081810360008301526120798161203d565b9050919050565b7f496e636f7272656374207072656d69756d20616d6f756e742073656e74000000600082015250565b60006120b6601d83611f71565b91506120c182612080565b602082019050919050565b600060208201905081810360008301526120e5816120a9565b9050919050565b7f4e487b7100000000000000000000000000000000000000000000000000000000600052601160045260246000fd5b600061212682611c4b565b915061213183611c4b565b9250828203905081811115612149576121486120ec565b5b92915050565b7f4e487b7100000000000000000000000000000000000000000000000000000000600052603260045260246000fd5b7f596f75206861766520616c72656164792070757263686173656420746869732060008201527f706f6c6963792e00000000000000000000000000000000000000000000000000602082015250565b60006121da602783611f71565b91506121e58261217e565b604082019050919050565b60006020820190508181036000830152612209816121cd565b9050919050565b600061221b82611c4b565b915061222683611c4b565b925082820261223481611c4b565b9150828204841483151761224b5761224a6120ec565b5b5092915050565b600061225d82611c4b565b915061226883611c4b565b92508282019050808211156122805761227f6120ec565b5b92915050565b7f536f75726365206d75737420626520746865206f7261636c65206f662074686560008201527f2072657175657374000000000000000000000000000000000000000000000000602082015250565b60006122e2602883611f71565b91506122ed82612286565b604082019050919050565b60006020820190508181036000830152612311816122d5565b9050919050565b7f596f752068617665206e6f7420707572636861736564207468697320706f6c6960008201527f6379000000000000000000000000000000000000000000000000000000000000602082015250565b6000612374602283611f71565b915061237f82612318565b604082019050919050565b600060208201905081810360008301526123a381612367565b9050919050565b7f506f6c696379206e6f7420616374697665000000000000000000000000000000600082015250565b60006123e0601183611f71565b91506123eb826123aa565b602082019050919050565b6000602082019050818103600083015261240f816123d3565b9050919050565b7f436c61696d20616c72656164792070726f636573736564000000000000000000600082015250565b600061244c601783611f71565b915061245782612416565b602082019050919050565b6000602082019050818103600083015261247b8161243f565b9050919050565b7f44726f7567687420686176652068617665206e6f74206f636375726564000000600082015250565b60006124b8601d83611f71565b91506124c382612482565b602082019050919050565b600060208201905081810360008301526124e7816124ab565b9050919050565b7f4d7573742062652070726f706f736564206f776e657200000000000000000000600082015250565b6000612524601683611f71565b915061252f826124ee565b602082019050919050565b6000602082019050818103600083015261255381612517565b9050919050565b60008151905061256981611c55565b92915050565b60006020828403121561258557612584611c46565b5b60006125938482850161255a565b91505092915050565b60006040820190506125b16000830185611e24565b6125be6020830184611cc1565b9392505050565b6125ce81611eba565b81146125d957600080fd5b50565b6000815190506125eb816125c5565b92915050565b60006020828403121561260757612606611c46565b5b6000612615848285016125dc565b91505092915050565b7f556e61626c6520746f207472616e736665720000000000000000000000000000600082015250565b6000612654601283611f71565b915061265f8261261e565b602082019050919050565b6000602082019050818103600083015261268381612647565b9050919050565b7f4f6e6c792063616c6c61626c65206279206f776e657200000000000000000000600082015250565b60006126c0601683611f71565b91506126cb8261268a565b602082019050919050565b600060208201905081810360008301526126ef816126b3565b9050919050565b7f43616e6e6f74207472616e7366657220746f2073656c66000000000000000000600082015250565b600061272c601783611f71565b9150612737826126f6565b602082019050919050565b6000602082019050818103600083015261275b8161271f565b9050919050565b6000819050919050565b600061277782612762565b915061278283612762565b92508282039050818112600084121682821360008512151617156127a9576127a86120ec565b5b92915050565b60007fffffffff0000000000000000000000000000000000000000000000000000000082169050919050565b6127e4816127af565b82525050565b600081519050919050565b600082825260208201905092915050565b60005b83811015612824578082015181840152602081019050612809565b60008484015250505050565b6000601f19601f8301169050919050565b600061284c826127ea565b61285681856127f5565b9350612866818560208601612806565b61286f81612830565b840191505092915050565b600061010082019050612890600083018b611e24565b61289d602083018a611cc1565b6128aa6040830189611dc8565b6128b76060830188611e24565b6128c460808301876127db565b6128d160a0830186611cc1565b6128de60c0830185611cc1565b81810360e08301526128f08184612841565b90509998505050505050505050565b7f4e487b7100000000000000000000000000000000000000000000000000000000600052601260045260246000fd5b600061293982611c4b565b915061294483611c4b565b925082612954576129536128ff565b5b828206905092915050565b6000819050919050565b600061298461297f61297a84611df2565b61295f565b611df2565b9050919050565b600061299682612969565b9050919050565b60006129a88261298b565b9050919050565b60008160601b9050919050565b60006129c7826129af565b9050919050565b60006129d9826129bc565b9050919050565b6129f16129ec8261299d565b6129ce565b82525050565b6000819050919050565b612a12612a0d82611c4b565b6129f7565b82525050565b6000612a2482856129e0565b601482019150612a348284612a01565b6020820191508190509392505050565b6000606082019050612a596000830186611e24565b612a666020830185611cc1565b8181036040830152612a788184612841565b9050949350505050565b7f756e61626c6520746f207472616e73666572416e6443616c6c20746f206f726160008201527f636c650000000000000000000000000000000000000000000000000000000000602082015250565b6000612ade602383611f71565b9150612ae982612a82565b604082019050919050565b60006020820190508181036000830152612b0d81612ad1565b9050919050565b60008160011c9050919050565b6000808291508390505b6001851115612b6b57808604811115612b4757612b466120ec565b5b6001851615612b565780820291505b8081029050612b6485612b14565b9450612b2b565b94509492505050565b600082612b845760019050612c40565b81612b925760009050612c40565b8160018114612ba85760028114612bb257612be1565b6001915050612c40565b60ff841115612bc457612bc36120ec565b5b8360020a915084821115612bdb57612bda6120ec565b5b50612c40565b5060208310610133831016604e8410600b8410161715612c165782820a905083811115612c1157612c106120ec565b5b612c40565b612c238484846001612b21565b92509050818404811115612c3a57612c396120ec565b5b81810290505b9392505050565b6000612c5282611c4b565b9150612c5d83611c4b565b9250612c8a7fffffffffffffffffffffffffffffffffffffffffffffffffffffffffffffffff8484612b74565b90509291505056fe68747470733a2f2f6170692e6f70656e2d6d6574656f2e636f6d2f76312f666f7265636173743f6c617469747564653d31266c6f6e6769747564653d313033266461696c793d70726563697069746174696f6e5f73756d2674696d657a6f6e653d6175746f26706173745f646179733d3726666f7265636173745f646179733d31a264697066735822122004f74884fc1652dff84916d7b221560b6f83477234b7872efadad49b37f48fc064736f6c63430008130033",
  "linkReferences": {},
  "deployedLinkReferences": {}
}