{
  "_format": "hh-sol-artifact-1",
  "contractName": "EthereumInsurance",
  "sourceName": "contracts/EthereumInsurance.sol",
  "abi": [
    {
      "inputs": [],
      "stateMutability": "nonpayable",
      "type": "constructor"
    },
    {
      "anonymous": false,
      "inputs": [
        {
          "indexed": true,
          "internalType": "address",
          "name": "insured",
          "type": "address"
        },
        {
          "indexed": false,
          "internalType": "uint256",
          "name": "payoutAmount",
          "type": "uint256"
        }
      ],
      "name": "ClaimProcessed",
      "type": "event"
    },
    {
      "anonymous": false,
      "inputs": [
        {
          "indexed": true,
          "internalType": "address",
          "name": "insured",
          "type": "address"
        },
        {
          "indexed": false,
          "internalType": "uint256",
          "name": "premium",
          "type": "uint256"
        },
        {
          "indexed": false,
          "internalType": "uint256",
          "name": "coverageAmount",
          "type": "uint256"
        },
        {
          "indexed": false,
          "internalType": "uint256",
          "name": "startDate",
          "type": "uint256"
        },
        {
          "indexed": false,
          "internalType": "uint256",
          "name": "endDate",
          "type": "uint256"
        }
      ],
      "name": "PolicyPurchased",
      "type": "event"
    },
    {
      "inputs": [],
      "name": "attemptClaim",
      "outputs": [],
      "stateMutability": "nonpayable",
      "type": "function"
    },
    {
      "inputs": [
        {
          "internalType": "uint256",
          "name": "_durationDays",
          "type": "uint256"
        }
      ],
      "name": "calculatePremium",
      "outputs": [
        {
          "internalType": "uint256",
          "name": "",
          "type": "uint256"
        }
      ],
      "stateMutability": "pure",
      "type": "function"
    },
    {
      "inputs": [],
      "name": "ethPrice",
      "outputs": [
        {
          "internalType": "uint256",
          "name": "",
          "type": "uint256"
        }
      ],
      "stateMutability": "view",
      "type": "function"
    },
    {
      "inputs": [],
      "name": "fundContract",
      "outputs": [],
      "stateMutability": "payable",
      "type": "function"
    },
    {
      "inputs": [],
      "name": "getContractBalance",
      "outputs": [
        {
          "internalType": "uint256",
          "name": "",
          "type": "uint256"
        }
      ],
      "stateMutability": "view",
      "type": "function"
    },
    {
      "inputs": [],
      "name": "getEthDecimalPlace",
      "outputs": [
        {
          "internalType": "uint256",
          "name": "",
          "type": "uint256"
        }
      ],
      "stateMutability": "view",
      "type": "function"
    },
    {
      "inputs": [],
      "name": "getEthPrice",
      "outputs": [
        {
          "internalType": "int256",
          "name": "",
          "type": "int256"
        }
      ],
      "stateMutability": "view",
      "type": "function"
    },
    {
      "inputs": [],
      "name": "owner",
      "outputs": [
        {
          "internalType": "address",
          "name": "",
          "type": "address"
        }
      ],
      "stateMutability": "view",
      "type": "function"
    },
    {
      "inputs": [
        {
          "internalType": "address",
          "name": "",
          "type": "address"
        }
      ],
      "name": "policies",
      "outputs": [
        {
          "internalType": "address",
          "name": "insured",
          "type": "address"
        },
        {
          "internalType": "uint256",
          "name": "premium",
          "type": "uint256"
        },
        {
          "internalType": "uint256",
          "name": "coverageAmount",
          "type": "uint256"
        },
        {
          "internalType": "uint256",
          "name": "startDate",
          "type": "uint256"
        },
        {
          "internalType": "uint256",
          "name": "endDate",
          "type": "uint256"
        },
        {
          "internalType": "enum EthereumInsurance.PolicyStatus",
          "name": "status",
          "type": "uint8"
        }
      ],
      "stateMutability": "view",
      "type": "function"
    },
    {
      "inputs": [
        {
          "internalType": "uint256",
          "name": "_durationDays",
          "type": "uint256"
        }
      ],
      "name": "purchaseInsurance",
      "outputs": [],
      "stateMutability": "payable",
      "type": "function"
    },
    {
      "inputs": [],
      "name": "totalCoverageAmount",
      "outputs": [
        {
          "internalType": "uint256",
          "name": "",
          "type": "uint256"
        }
      ],
      "stateMutability": "view",
      "type": "function"
    },
    {
      "inputs": [],
      "name": "withdraw",
      "outputs": [],
      "stateMutability": "payable",
      "type": "function"
    }
  ],
  "bytecode": "0x608060405234801561001057600080fd5b5073694aa1769357215de4fac081bf1f309adc325306600360006101000a81548173ffffffffffffffffffffffffffffffffffffffff021916908373ffffffffffffffffffffffffffffffffffffffff160217905550336000806101000a81548173ffffffffffffffffffffffffffffffffffffffff021916908373ffffffffffffffffffffffffffffffffffffffff1602179055506115a1806100b56000396000f3fe6080604052600436106100a75760003560e01c80636f9fb98a116100645780636f9fb98a146101a257806382e83a1e146101cd5780638da5cb5b146101f8578063bd097e2114610223578063e64e45881461022d578063ff186b2e14610249576100a7565b806320e98698146100ac5780633ccfd60b146100ee578063465e0552146100f857806348f54f03146101235780635938f59b1461016057806367c9b01714610177575b600080fd5b3480156100b857600080fd5b506100d360048036038101906100ce9190610b98565b610274565b6040516100e596959493929190610c64565b60405180910390f35b6100f66102dd565b005b34801561010457600080fd5b5061010d6103ba565b60405161011a9190610cc5565b60405180910390f35b34801561012f57600080fd5b5061014a60048036038101906101459190610d0c565b6103c0565b6040516101579190610cc5565b60405180910390f35b34801561016c57600080fd5b506101756103dc565b005b34801561018357600080fd5b5061018c6106cf565b6040516101999190610d52565b60405180910390f35b3480156101ae57600080fd5b506101b7610770565b6040516101c49190610cc5565b60405180910390f35b3480156101d957600080fd5b506101e2610807565b6040516101ef9190610cc5565b60405180910390f35b34801561020457600080fd5b5061020d6108a2565b60405161021a9190610d6d565b60405180910390f35b61022b6108c6565b005b61024760048036038101906102429190610d0c565b6108c8565b005b34801561025557600080fd5b5061025e610b2f565b60405161026b9190610cc5565b60405180910390f35b60046020528060005260406000206000915090508060000160009054906101000a900473ffffffffffffffffffffffffffffffffffffffff16908060010154908060020154908060030154908060040154908060050160009054906101000a900460ff16905086565b60008054906101000a900473ffffffffffffffffffffffffffffffffffffffff1673ffffffffffffffffffffffffffffffffffffffff163373ffffffffffffffffffffffffffffffffffffffff161461036b576040517f08c379a000000000000000000000000000000000000000000000000000000000815260040161036290610de5565b60405180910390fd5b60003390508073ffffffffffffffffffffffffffffffffffffffff166108fc479081150290604051600060405180830381858888f193505050501580156103b6573d6000803e3d6000fd5b5050565b60025481565b600066038d7ea4c68000826103d59190610e34565b9050919050565b6000600460003373ffffffffffffffffffffffffffffffffffffffff1673ffffffffffffffffffffffffffffffffffffffff16815260200190815260200160002090503373ffffffffffffffffffffffffffffffffffffffff168160000160009054906101000a900473ffffffffffffffffffffffffffffffffffffffff1673ffffffffffffffffffffffffffffffffffffffff16146104b1576040517f08c379a00000000000000000000000000000000000000000000000000000000081526004016104a890610ec2565b60405180910390fd5b600060028111156104c5576104c4610bed565b5b8160050160009054906101000a900460ff1660028111156104e9576104e8610bed565b5b14610529576040517f08c379a000000000000000000000000000000000000000000000000000000000815260040161052090610f2e565b60405180910390fd5b8060040154421115610570576040517f08c379a000000000000000000000000000000000000000000000000000000000815260040161056790610f9a565b60405180910390fd5b6105786106cf565b600181905550610586610807565b600161059291906110ed565b6103e861059f9190610e34565b600154106105e2576040517f08c379a00000000000000000000000000000000000000000000000000000000081526004016105d9906111aa565b60405180910390fd5b60018160050160006101000a81548160ff0219169083600281111561060a57610609610bed565b5b02179055506002546002600082825461062391906111ca565b9250508190556002819055503373ffffffffffffffffffffffffffffffffffffffff166108fc82600201549081150290604051600060405180830381858888f19350505050158015610679573d6000803e3d6000fd5b503373ffffffffffffffffffffffffffffffffffffffff167fe80d36773458ce7a03850714245b45fa8535fda364366bf7552e38ec63fbf99782600201546040516106c49190610cc5565b60405180910390a250565b600080600360009054906101000a900473ffffffffffffffffffffffffffffffffffffffff1673ffffffffffffffffffffffffffffffffffffffff1663feaf968c6040518163ffffffff1660e01b815260040160a060405180830381865afa15801561073f573d6000803e3d6000fd5b505050506040513d601f19601f820116820180604052508101906107639190611281565b5050509150508091505090565b60008060009054906101000a900473ffffffffffffffffffffffffffffffffffffffff1673ffffffffffffffffffffffffffffffffffffffff163373ffffffffffffffffffffffffffffffffffffffff1614610801576040517f08c379a00000000000000000000000000000000000000000000000000000000081526004016107f890610de5565b60405180910390fd5b47905090565b6000600360009054906101000a900473ffffffffffffffffffffffffffffffffffffffff1673ffffffffffffffffffffffffffffffffffffffff1663313ce5676040518163ffffffff1660e01b8152600401602060405180830381865afa158015610876573d6000803e3d6000fd5b505050506040513d601f19601f8201168201806040525081019061089a9190611335565b60ff16905090565b60008054906101000a900473ffffffffffffffffffffffffffffffffffffffff1681565b565b605a81111561090c576040517f08c379a0000000000000000000000000000000000000000000000000000000008152600401610903906113d4565b60405180910390fd5b6000610917826103c0565b905080341461095b576040517f08c379a000000000000000000000000000000000000000000000000000000000815260040161095290611440565b60405180910390fd5b600060028261096a9190610e34565b9050476002548261097b9190611460565b11156109bc576040517f08c379a00000000000000000000000000000000000000000000000000000000081526004016109b390611506565b60405180910390fd5b80600260008282546109ce9190611460565b925050819055506000429050600062015180856109eb9190610e34565b826109f69190611460565b90506000600460003373ffffffffffffffffffffffffffffffffffffffff1673ffffffffffffffffffffffffffffffffffffffff1681526020019081526020016000209050338160000160006101000a81548173ffffffffffffffffffffffffffffffffffffffff021916908373ffffffffffffffffffffffffffffffffffffffff16021790555084816001018190555083816002018190555082816003018190555081816004018190555060008160050160006101000a81548160ff02191690836002811115610aca57610ac9610bed565b5b02179055503373ffffffffffffffffffffffffffffffffffffffff167f8e63e251f17c4f8c8dd082b9641ba8a3a04d5506e4a1b1782c6e3f57abc393748683600201548686604051610b1f9493929190611526565b60405180910390a2505050505050565b60015481565b600080fd5b600073ffffffffffffffffffffffffffffffffffffffff82169050919050565b6000610b6582610b3a565b9050919050565b610b7581610b5a565b8114610b8057600080fd5b50565b600081359050610b9281610b6c565b92915050565b600060208284031215610bae57610bad610b35565b5b6000610bbc84828501610b83565b91505092915050565b610bce81610b5a565b82525050565b6000819050919050565b610be781610bd4565b82525050565b7f4e487b7100000000000000000000000000000000000000000000000000000000600052602160045260246000fd5b60038110610c2d57610c2c610bed565b5b50565b6000819050610c3e82610c1c565b919050565b6000610c4e82610c30565b9050919050565b610c5e81610c43565b82525050565b600060c082019050610c796000830189610bc5565b610c866020830188610bde565b610c936040830187610bde565b610ca06060830186610bde565b610cad6080830185610bde565b610cba60a0830184610c55565b979650505050505050565b6000602082019050610cda6000830184610bde565b92915050565b610ce981610bd4565b8114610cf457600080fd5b50565b600081359050610d0681610ce0565b92915050565b600060208284031215610d2257610d21610b35565b5b6000610d3084828501610cf7565b91505092915050565b6000819050919050565b610d4c81610d39565b82525050565b6000602082019050610d676000830184610d43565b92915050565b6000602082019050610d826000830184610bc5565b92915050565b600082825260208201905092915050565b7f4e6f742074686520636f6e7472616374206f776e657200000000000000000000600082015250565b6000610dcf601683610d88565b9150610dda82610d99565b602082019050919050565b60006020820190508181036000830152610dfe81610dc2565b9050919050565b7f4e487b7100000000000000000000000000000000000000000000000000000000600052601160045260246000fd5b6000610e3f82610bd4565b9150610e4a83610bd4565b9250828202610e5881610bd4565b91508282048414831517610e6f57610e6e610e05565b5b5092915050565b7f4e6f20706f6c69637920666f756e6420666f72207468652073656e6465720000600082015250565b6000610eac601e83610d88565b9150610eb782610e76565b602082019050919050565b60006020820190508181036000830152610edb81610e9f565b9050919050565b7f496e737572616e636520616c726561647920636c61696d656400000000000000600082015250565b6000610f18601983610d88565b9150610f2382610ee2565b602082019050919050565b60006020820190508181036000830152610f4781610f0b565b9050919050565b7f506f6c6963792065787069726564000000000000000000000000000000000000600082015250565b6000610f84600e83610d88565b9150610f8f82610f4e565b602082019050919050565b60006020820190508181036000830152610fb381610f77565b9050919050565b60008160011c9050919050565b6000808291508390505b600185111561101157808604811115610fed57610fec610e05565b5b6001851615610ffc5780820291505b808102905061100a85610fba565b9450610fd1565b94509492505050565b60008261102a57600190506110e6565b8161103857600090506110e6565b816001811461104e576002811461105857611087565b60019150506110e6565b60ff84111561106a57611069610e05565b5b8360020a91508482111561108157611080610e05565b5b506110e6565b5060208310610133831016604e8410600b84101617156110bc5782820a9050838111156110b7576110b6610e05565b5b6110e6565b6110c98484846001610fc7565b925090508184048111156110e0576110df610e05565b5b81810290505b9392505050565b60006110f882610bd4565b915061110383610bd4565b92506111307fffffffffffffffffffffffffffffffffffffffffffffffffffffffffffffffff848461101a565b905092915050565b7f457468657265756d207072696365206973206e6f742062656c6f77202431303060008201527f3000000000000000000000000000000000000000000000000000000000000000602082015250565b6000611194602183610d88565b915061119f82611138565b604082019050919050565b600060208201905081810360008301526111c381611187565b9050919050565b60006111d582610bd4565b91506111e083610bd4565b92508282039050818111156111f8576111f7610e05565b5b92915050565b600069ffffffffffffffffffff82169050919050565b61121d816111fe565b811461122857600080fd5b50565b60008151905061123a81611214565b92915050565b61124981610d39565b811461125457600080fd5b50565b60008151905061126681611240565b92915050565b60008151905061127b81610ce0565b92915050565b600080600080600060a0868803121561129d5761129c610b35565b5b60006112ab8882890161122b565b95505060206112bc88828901611257565b94505060406112cd8882890161126c565b93505060606112de8882890161126c565b92505060806112ef8882890161122b565b9150509295509295909350565b600060ff82169050919050565b611312816112fc565b811461131d57600080fd5b50565b60008151905061132f81611309565b92915050565b60006020828403121561134b5761134a610b35565b5b600061135984828501611320565b91505092915050565b7f4475726174696f6e2065786365656473206d6178696d756d206f662033206d6f60008201527f6e74687300000000000000000000000000000000000000000000000000000000602082015250565b60006113be602483610d88565b91506113c982611362565b604082019050919050565b600060208201905081810360008301526113ed816113b1565b9050919050565b7f496e636f7272656374207072656d69756d20616d6f756e742073656e74000000600082015250565b600061142a601d83610d88565b9150611435826113f4565b602082019050919050565b600060208201905081810360008301526114598161141d565b9050919050565b600061146b82610bd4565b915061147683610bd4565b925082820190508082111561148e5761148d610e05565b5b92915050565b7f4572726f722120496e73756666696369656e742066756e6420666f722070617960008201527f6f75740000000000000000000000000000000000000000000000000000000000602082015250565b60006114f0602383610d88565b91506114fb82611494565b604082019050919050565b6000602082019050818103600083015261151f816114e3565b9050919050565b600060808201905061153b6000830187610bde565b6115486020830186610bde565b6115556040830185610bde565b6115626060830184610bde565b9594505050505056fea26469706673582212209825d8543b7b15c66be0ecc35a4af83fe50d264916e74d28677a3cf2dc4149ee64736f6c63430008130033",
  "linkReferences": {},
  "deployedLinkReferences": {}
}